:1000000023C1000052C1000050C100004EC10000D9
:100010004CC100004AC1000048C1000046C10000B8
:1000200044C1000042C1000040C100003EC10000C8
:100030003CC100003AC1000038C1000036C10000D8
:1000400034C1000032C1000030C100002EC10000E8
:100050000C942F082AC1000028C100000C94A30EA4
:1000600024C10000C3C7000098C700001EC10000E3
:100070001CC100001AC1000018C1000016C1000018
:1000800014C1000012C1000010C100000EC1000028
:100090000CC100000AC1000008C1000006C1000038
:1000A00004C1000002C1000000C10000FEC0000049
:1000B000FCC00000FAC00000F8C00000F6C000005C
:1000C000F4C00000F2C00000F0C00000EEC000006C
:1000D000ECC00000EAC00000E8C00000E6C000007C
:1000E000E4C000006A10B113B113AB10B113B11327
:1000F000AE1078118111B1139011EC11B113B1133D
:10010000FB11B113B1130E12B113B113B113981245
:10011000B113B113B113B113D212F80DFB0DEA0DE7
:10012000EE0DF20D320EFF0D030E090E0D0E110E27
:10013000170E1B0E1F0E320E250E290E2D0E00005F
:100140000A0B02090C0D0E08070304010000000051
:10015000000000000000000000000000000000009F
:10016000000000000000000000001211100000005C
:10017000000000000000000000000000000000007F
:100180000000000000002200250028002B002E00A7
:100190003100340002010000050108010B010000DC
:1001A0002100240027002A002D0030003300010127
:1001B0000000040107010A010505050507050808F7
:1001C0000808020202020A0A0808040404040101E1
:1001D00001010101010103030303030303030407F6
:1001E00007070C0C0C0C0C0C0C0C0202020206068D
:1001F0000606060606060B0B0B0B0B0B0B0B010280
:100200001020200808102040102040800201020128
:1002100008040201010204081020408080402010E0
:100220000804020180040201804020100804020139
:1002300008040201010204081020408001020408A1
:10024000102040800414031411241FBECFEFD1E20C
:10025000DEBFCDBF00E00CBF12E0A0E0B2E0E2E103
:10026000F4E300E00BBF02C007900D92A634B10783
:10027000D9F726E0A6E4B2E001C01D92A930B2078A
:10028000E1F711E0C3E2D1E000E006C021970109E7
:10029000802FFE010E94EE16C232D10780E00807CF
:1002A000A9F70E94ED0E0C94F819AACEFC016A3E43
:1002B00083E07807C1F04CF4683E83E0780771F082
:1002C000693E83E07807A1F019C06B3E83E07807B0
:1002D00079F06C3E83E0780731F010C0648175815D
:1002E0008681978109C0648575858685978504C058
:1002F00060857185828593850E94C317972F862F0D
:10030000089561E08EE10C94C90D60E08EE10C94DB
:10031000C90DFC01DB0182E492E091838083129697
:100320008D919C9113979383828314968D919C91C8
:1003300015979583848316968D919C911797978333
:1003400086830895FC01DB0112968D919C91139791
:100350009383828314964D915D916D917C91179753
:1003600044835583668377838EE292E09183808312
:1003700018964D915D916D917C911B9740875187A7
:10038000628773871C968D919D910D90BC91A02DD5
:1003900084879587A687B78708952F923F924F92BB
:1003A0005F926F927F928F929F92AF92BF92CF9205
:1003B000DF92EF92FF920F931F93CF93DF93CDB70E
:1003C000DEB7CC54D1090FB6F894DEBF0FBECDBF57
:1003D0002B969FAF8EAF2B973B011A012901B501D8
:1003E000CE01C196AFDFB401CE01C1965FDF9C01A3
:1003F000F50182809380B701CE0181962C962FAFB4
:100400002C972D963FAF2D979DDFB601CE0181969B
:100410004DDF5C01F701C280D380B201CE0141966D
:1004200091DFB801CE01419641DF7C01F2010281EA
:100430001381B301CE01019685DFB101CE01019692
:1004400035DF1C01F301628073802B966EAD7FADAA
:100450002B97CE018F5B9F4F5CDF1F921F921F92E5
:100460001F921F921F921F921F922D963FAD2D97A4
:100470003F932C962FAD2C972F939101A30164E00D
:1004800070E0CE018F5B9F4FC9D60FB6F894DEBFE8
:100490000FBECDBFC45BDF4F0FB6F894DEBF0FBEFB
:1004A000CDBFDF91CF911F910F91FF90EF90DF9023
:1004B000CF90BF90AF909F908F907F906F905F9004
:1004C0004F903F902F9008954F925F926F927F923E
:1004D0008F929F92AF92BF92CF92DF92EF92FF9254
:1004E0000F931F93CF93DF93CDB7DEB768970FB607
:1004F000F894DEBF0FBECDBF7C018B013A01CE0167
:10050000019620DFB301CE010196D0DE2C01F80167
:1005100062807380B701CE014196FBDE1F921F926D
:100520001F921F921F921F921F921F921F921F9243
:10053000812C912CA12CB12CC12CD12CE12CF12C93
:1005400000E010E09201A30161E070E0CE0141966D
:1005500065D60FB6F894DEBF0FBECDBF68960FB656
:10056000F894DEBF0FBECDBFDF91CF911F910F91E9
:10057000FF90EF90DF90CF90BF90AF909F908F90C3
:100580007F906F905F904F9008954F925F926F921F
:100590007F928F929F92AF92BF92CF92DF92EF9213
:1005A000FF920F931F93CF93DF93CDB7DEB7A8973A
:1005B0000FB6F894DEBF0FBECDBF6C013B012A0120
:1005C0005901B901CE014196BDDEB801CE01419677
:1005D0006DDE7C01F50102811381B301CE0101962C
:1005E000B1DEB201CE01019661DE2C01F301628021
:1005F0007380B601CE0181968CDE1F921F921F92EE
:100600001F921F921F921F921F921F921F92812C66
:10061000912CA12CB12CC12CD12C9201A30162E010
:1006200070E0CE018196FAD50FB6F894DEBF0FBE0A
:10063000CDBFA8960FB6F894DEBF0FBECDBFDF9139
:10064000CF911F910F91FF90EF90DF90CF90BF90CF
:10065000AF909F908F907F906F905F904F90089594
:100660006F927F928F929F92AF92BF92CF92DF92C2
:10067000EF92FF920F931F93CF93DF93CDB7DEB727
:10068000C05BD1090FB6F894DEBF0FBECDBF68EFD7
:1006900074E0CE018F569F4F55DE68E075E0CE01C5
:1006A0008F579F4F4FDE68E175E0CE018F589F4F07
:1006B00049DE68E275E0CE018F599F4F43DE68E363
:1006C00075E0CE018F5A9F4F3DDE68E975E0CE019F
:1006D00087559F4F1EDEBE016F567F4FCE018F5B49
:1006E0009F4F30DECD56DF4FF880C359D040CC56F7
:1006F000DF4FE880C459D040BE016F577F4FCE0115
:10070000C19620DECD57DF4F88809980C358D040F6
:10071000BE016F587F4FCE01819614DEE596CEACB8
:10072000DFACE597BE016F597F4FCE0141960ADEDF
:10073000A5960EAD1FADA597BE016F5A7F4FCE0196
:10074000019600DE65966EAC7FAC6597BE0167557D
:100750007F4FCE018F559F4FDCDD1F921F921F925E
:100760001F9281E08F9398E19F93EF92FF928F9376
:1007700080E98F9388E1A82EBB24B3949CE7E92EEF
:10078000FF24F39428EC30E0A30165E070E0CE0193
:100790008F559F4F43D50FB6F894DEBF0FBECDBF28
:1007A000C055DF4F0FB6F894DEBF0FBECDBFDF914F
:1007B000CF911F910F91FF90EF90DF90CF90BF905E
:1007C000AF909F908F907F906F900895CF92DF921F
:1007D000EF92FF92FC0122813381C480D580E680B4
:1007E000F780A901440F551FFA01E058FC4F019012
:1007F000F081E02DC082D182E282F382FA01E057DB
:10080000FD4F91838083F901E053FD4F41E0408328
:1008100020918E0230918F02F901EE0FFF1FE25BF3
:10082000FD4F918380832F5F3F4F30938F02209342
:100830008E02FF90EF90DF90CF900895CF92DF92DD
:10084000EF92FF920F931F93092E000CAA0BBB0B84
:100850002FB7F89440917C0350917D0360917E0303
:1008600070917F032FBF40934A0250934B026093D5
:100870004C0270934D020091460210914702209164
:100880004802309149026A017B01C01AD10AE20A8A
:10089000F30A8C159D05AE05BF05D0F640934602C0
:1008A0005093470260934802709349021F910F9141
:1008B000FF90EF90DF90CF9008952F923F924F924C
:1008C0005F926F927F928F929F92AF92BF92CF92E0
:1008D000DF92EF92FF920F931F93CF93DF93CDB7E9
:1008E000DEB7C45DD1090FB6F894DEBF0FBECDBF31
:1008F000B7DE68E775E0CE01019624DD68E975E0B2
:10090000CE01419606DD4AEE53E0BE016F5F7F4F98
:10091000CE014196D9DD80ED97E090DF68E675E085
:10092000CE0141960FDD68E875E0CE0101960ADD43
:1009300060EF75E0CE018196ECDC01E811E09E01EC
:100940002F5E3F4F44EB50E0BE016F5F7F4FCE0103
:1009500081961BDE80ED97E071DF68E075E0CE01E7
:100960000196F0DC68E175E0CE014196EBDC68E2CF
:1009700075E0CE018196E6DC68E375E0CE01C196B4
:10098000E1DC60EF75E0CE018F5B9F4FC2DC8AEA4D
:10099000882E912CCE0101965C012AEAC22ED12C20
:1009A00040967C0105E411E09E012F5D3F4F41EE32
:1009B00050E0BE016F5C7F4FC096EFDC80ED97E0AA
:1009C0003DDF68E075E0CE018F549F4FBBDC68E1EE
:1009D00075E0CE018F559F4FB5DC68E275E0CE0122
:1009E0008F569F4FAFDC68E375E0CE018F579F4F66
:1009F000A9DC68E675E0CE018F589F4FA3DC68E85C
:100A000075E0CE018F599F4F9DDC60EF75E0CE0100
:100A100087539F4F7EDCBE016F547F4FCE018F5AAC
:100A20009F4F90DCCD54DF4FB880C35BD040CC5497
:100A3000DF4FA880C45BD040BE016F557F4FCE0111
:100A40008F5B9F4F7FDCCD55DF4FF880C35AD0407E
:100A5000CC55DF4FE880C45AD040BE016F567F4F5F
:100A6000CE01C1966FDCCD56DF4F88809980C35987
:100A7000D040BE016F577F4FCE01819663DCCD57CA
:100A8000DF4FC880D980C358D040BE016F587F4F18
:100A9000CE01419657DC6D8D7E8D8F8D98A10E9481
:100AA000C3172B013C01E5960EAD1FADE597BE01C6
:100AB0006F597F4FCE01019645DC6D857E858F8510
:100AC00098890E94C3179B01AC01A5962EAC3FAC40
:100AD000A597BE0167537F4FCE018F539F4FCF52D3
:100AE000DF4F2883C15DD040CE52DF4F3883C25DD7
:100AF000D040CD52DF4F4883C35DD040CC52DF4F52
:100B00005883C45DD04005DC81E08F939EE59F93C0
:100B1000AF92BF928F9382E28F93EF92FF921F92D8
:100B20008CED8F9330E4A32EBB24B3947201CF528B
:100B3000DF4F2881C15DD040CE52DF4F3881C25D8A
:100B4000D040A10166E070E0CE018F539F4F66D385
:100B500088EE93E073DE0FB6F894DEBF0FBECDBF14
:100B6000CC52DF4F0FB6F894DEBF0FBECDBFDF9182
:100B7000CF911F910F91FF90EF90DF90CF90BF909A
:100B8000AF909F908F907F906F905F904F903F902D
:100B90002F900895CF92DF92EF92FF920F931F93C1
:100BA000CF93DF936C017A018B01C0E0D0E0CE15CA
:100BB000DF0589F0D8016D918D01D601ED91FC9191
:100BC0000190F081E02DC6011995892B11F47E0169
:100BD00002C02196ECCFC701DF91CF911F910F91F9
:100BE000FF90EF90DF90CF900895FC01918D828D62
:100BF000981761F0828DDF01A80FB11D5D968C9171
:100C0000928D9F5F9F73928F90E008958FEF9FEF7B
:100C10000895FC01918D828D981731F0828DE80F37
:100C2000F11D858D90E008958FEF9FEF0895FC01F1
:100C3000918D228D892F90E0805C9F4F821B9109BE
:100C40008F73992708958BE094E0F1DF21E0892BE1
:100C500009F420E0822F0895FC01848DDF01A80FA4
:100C6000B11DA35ABF4F2C91848D90E001968F73D4
:100C70009927848FA689B7892C93A089B1898C91F3
:100C800080648C93938D848D981306C00288F389B9
:100C9000E02D80818F7D80830895EF92FF920F93E6
:100CA0001F93CF93DF93EC0181E0888F9B8D8C8D18
:100CB000981305C0E889F989808185FD23C0F62E47
:100CC0000B8D10E00F5F1F4F0F731127E02E8C8DDF
:100CD000E8120BC00FB607FCFACFE889F9898081CA
:100CE00085FFF5CFCE01B8DFF2CF8B8DFE01E80F87
:100CF000F11DE35AFF4FF0820B8FEA89FB89808157
:100D0000806207C0EE89FF896083E889F989808164
:100D10008064808381E090E0DF91CF911F910F91FB
:100D2000FF90EF900895CF93DF93EC01888D882397
:100D3000C1F0EA89FB89808185FD05C0A889B98950
:100D40008C9186FD0EC00FB607FCF5CF808185FF24
:100D5000F2CFA889B9898C9185FFEDCFCE017CDFD8
:100D6000E8CFDF91CF91089580E090E0892B19F0D2
:100D70006ADF811125C080E090E0892B41F080E09E
:100D800090E0892B21F00E94000081111CC080E0BE
:100D900090E0892B41F080E090E0892B21F00E94C7
:100DA0000000811113C080E090E0892BA1F080E069
:100DB00090E0892B81F00E94000081110AC0089503
:100DC0000E940000D8CF0E940000E1CF0E940000E6
:100DD000EACF0C9400000895CF92DF92EF92FF9239
:100DE000FC01C480D580E680F78020E030E047EE4B
:100DF00053E4C701B6010E94291920E030E040E227
:100E000052E418162CF0C701B6010E94F71604C070
:100E1000C701B6010E94F6160E94C317CB01FF90CE
:100E2000EF90DF90CF90089520E030E040E251E471
:100E3000FC0164817581868197810E94F7160E946A
:100E4000C317CB010895FC01648175818681978168
:100E50000E94C317CB010895FC01648175818681CE
:100E600097810E94C317CB010895FC0164817581AD
:100E7000868197810E94C317CB010895FC0164818C
:100E80007581868197810E94C317CB010895CF9207
:100E9000DF92EF92FF92FC01C480D580E680F7805C
:100EA0002085318542855385C701B6010E94F6161B
:100EB00020E030E0A9010E94F41720E030E048EC87
:100EC00051E487FD05C0C701B6010E94F61604C0B3
:100ED000C701B6010E94F7160E94C317CB01FF900D
:100EE000EF90DF90CF900895CF92DF92EF92FF9234
:100EF000FC01C480D580E680F7802085318542855D
:100F00005385C701B6010E94F61620E030E0A90122
:100F10000E94F41720E030E040E251E487FD05C074
:100F2000C701B6010E94F61604C0C701B6010E94AF
:100F3000F7160E94C317CB01FF90EF90DF90CF9080
:100F40000895FC0160857185828593850E94C31791
:100F5000CB010895FC0164857585868597850E947F
:100F6000C317CB010895FC01608571858285938547
:100F70000E94C317CB010895FC01648575858685A1
:100F800097850E94C317CB0108950E9425190C94E0
:100F90008D180C948D180C948D181F920F920FB60B
:100FA0000F9211240BB60F922F933F934F935F93A1
:100FB0006F937F938F939F93AF93BF93EF93FF9321
:100FC0008BE094E049DEFF91EF91BF91AF919F914B
:100FD0008F917F916F915F914F913F912F910F90E2
:100FE0000BBE0F900FBE0F901F9018951F920F927F
:100FF0000FB60F9211240BB60F922F938F939F93DE
:10100000EF93FF93E0911B04F0911C048081E09129
:101010002104F091220482FD12C090818091240469
:101020008F5F8F7320912504821751F0E091240483
:10103000F0E0E55FFB4F958F8093240401C0808131
:10104000FF91EF919F918F912F910F900BBE0F9079
:101050000FBE0F901F9018950895089508951F9240
:101060000F920FB60F9211240BB60F922F933F934E
:101070004F935F936F937F938F939F93AF93BF93A0
:10108000EF93FF9380E28093800010926F001092A4
:101090000904E0917A03F0917B03309711F0789482
:1010A0001995FF91EF91BF91AF919F918F917F9192
:1010B0006F915F914F913F912F910F900BBE0F90C9
:1010C0000FBE0F901F901895663671053CF0613089
:1010D00092E079072CF060E072E002C066E670E012
:1010E00020E030E1261B370B9FE2981B892F93E00D
:1010F000899FF0011124F695E795E054FC4F80FF9D
:1011000005C08081807F832B80830CC0C90134E0BF
:10111000969587953A95E1F780832295207F818186
:101120008F70282B218308952FB7F89480917C032A
:1011300090917D03A0917E03B0917F032FBF809398
:10114000130490931404A0931504B0931604E09133
:101150000B04F0910C040084F185E02D8BE094E009
:10116000199597FF26C02FB7F89480917C03909132
:101170007D03A0917E03B0917F032FBF40911304A4
:10118000509114046091150470911604841B950B02
:10119000A60BB70B40910F045091100460911104FD
:1011A0007091120484179507A607B70780F28FEF96
:1011B0009FEF08958091090481112EC090E29093D1
:1011C000800090910A04992319F010920A0402C039
:1011D000299A2998E0ECF3E090819EBD0DB407FEBA
:1011E000FDCF91819EBD0DB407FEFDCF3396DF018B
:1011F00011979C919EBD0DB407FEFDCF94E0E830A1
:10120000F90750F391E09093090420EA20938000BD
:10121000B09A90936F00089581E008952F923F92C5
:101220004F925F926F927F928F929F92AF92BF92F6
:10123000CF92DF92EF92FF920F931F93CF93DF93A2
:10124000CDB7DEB7A2970FB6F894DEBF0FBECDBF05
:10125000FC013B015E834D8318870F83DA86C986C4
:101260009C868B864DB75EB75E8B4D8B628173819A
:101270007E876D87848195819A8B898BA681B781C2
:10128000BC8BAB8BC3010197A301440F551F440FC7
:10129000551FEDB7FEB7E41BF50B0FB6F894FEBF74
:1012A0000FBEEDBF6DB77EB76F5F7F4F788B6F87D7
:1012B000ADB7BEB7A41BB50B0FB6F894BEBF0FBE3B
:1012C000ADBFEDB7FEB731966F01A301440F551FB7
:1012D0006DB77EB7641B750B0FB6F8947EBF0FBE5B
:1012E0006DBFEDB7FEB73196161417040CF0D4C0DD
:1012F000AD81BE81AA0FBB1FA058BC4F0D90BC9101
:10130000A02D4D915D916D917C91D6014D935D9392
:101310006D937C931397ADB7BEB712963C932E9303
:101320001197181619060CF0B7C0D801AA0FBB1FE9
:10133000A058BC4F0D90BC91A02D4D915D916D9129
:101340007C91D60114964D935D936D937C93179782
:10135000F382E282B3E06B1671040CF49DC0A985A0
:10136000BA85AA0FBB1FA058BC4F0D90BC91A02DF1
:101370004D915D916D917C91D60118964D935D9341
:101380006D937C931B97B582A482B4E06B167104B5
:101390000CF482C0D401AA0FBB1FA058BC4F0D9003
:1013A000BC91A02D4D915D916D917C91D6011C96C3
:1013B0004D935D936D937C931F9788AD99AD978303
:1013C0008683B5E06B1671040CF466C0AAADBBADA4
:1013D000AA0FBB1FA058BC4F0D90BC91A02D4D91E2
:1013E0005D916D917C91D60150964D935D936D9377
:1013F0007C9353978CAD9DAD91878087B6E06B163B
:1014000071040CF449C0AEADBFADAA0FBB1FA0580C
:10141000BC4F0D90BC91A02D4D915D916D917C9133
:10142000D60154964D935D936D937C935797229676
:101430008EAD9FAD229793878287B7E06B167104BC
:101440005CF1A0918003B09181034D915D916D910C
:101450007C91D60158964D935D936D937C935B97E9
:1014600015861486B8E06B167104B4F0D6015C964C
:101470004D935D936D937C935F9717861686B9E0C5
:101480006B1671044CF0D60190964D935D936D935D
:101490007C939397118A108AFC83EB83EF84F888FE
:1014A000DA82C98200E010E0ED85FE854F01FF0F72
:1014B000AA08BB080615170599F1AB81BC816D918F
:1014C0007D91BC83AB83E981FA8121913191419176
:1014D0005191FA83E983072E000C880B990B2F8F0B
:1014E00038A349A35AA30E942F192F8D38A149A1CF
:1014F0005AA10E94F6161B012C01C501B4010E94DD
:101500002F199B01AC01C201B1010E945B17D701E9
:101510006D937D938D939D937D010F5F1F4FCACF78
:10152000812C912C8D819E81880F991FFC01E058A0
:10153000FC4FFA83E9838F819885880F991F9C015E
:1015400020583C4F3C832B8389859A85880F991FAF
:10155000AC0140585C4F588F4F8B8B859C85880F12
:10156000991FBC0160587C4F7A8F698F8AAD9BAD03
:10157000880F991FDC01A058BC4FBC8FAB8F8EAD7C
:101580009FAD880F991FFC01E058FC4FFE8FED8F37
:101590002D853E858216930609F40AC17601AF8433
:1015A000B88800E010E006151705B1F0D5012D91BF
:1015B0003D914D915D915D01F70160817181828165
:1015C00093810E94F716D7016D937D938D939D9320
:1015D0007D010F5F1F4FE7CF161417040CF0E0C01A
:1015E000F60160817181828193810E94C3178D8190
:1015F0009E816ADDA981BA812D913C91F60180819D
:101600009181A281B381F90180839183A283B38305
:10161000F1E06F16710409F4C3C0D60114962D9041
:101620003D904D905C901797C201B1010E94C31785
:101630008F81988549DDAB81BC81ED91FC91208241
:10164000318242825382B2E06B16710409F4A8C061
:10165000F6012084318442845384C201B1010E9486
:10166000C31789859A8530DDAF89B88DED91FC91DE
:101670002082318242825382B3E06B16710409F4F6
:101680008FC0F6012484358446845784C201B10199
:101690000E94C3178B859C8517DDA98DBA8DED91AE
:1016A000FC912082318242825382B4E06B16710435
:1016B00009F476C0F6012088318842885388C20137
:1016C000B1010E94C3178AAD9BADFEDCAB8DBC8D12
:1016D000ED91FC912082318242825382B5E06B16FB
:1016E000710409F45DC0F60124883588468857885E
:1016F000C201B1010E94C3178EAD9FADE5DCAD8D77
:10170000BE8DED91FC912082318242825382B6E0FF
:101710006B16710409F444C0F601208C318C428CA4
:10172000538CC201B1010E94C31780E090E0CCDC71
:101730000091800310918103D8012D923D924D922A
:101740005C921397B7E06B16710451F1F601248C8B
:10175000358C468C578CC201B1010E94C31780E0C2
:1017600090E0B2DCD8012D923D924D925C9213979D
:10177000B8E06B167104A1F0F60164A175A186A111
:1017800097A10E94C31780E090E09EDCF60180A143
:1017900091A1A2A1B3A1F80180839183A283B38315
:1017A00009DD89899A894AD8FFEF8F1A9F0AF0CEFE
:1017B0008B899C8943D84D895E890FB6F8945EBFAA
:1017C0000FBE4DBFA2960FB6F894DEBF0FBECDBFC1
:1017D000DF91CF911F910F91FF90EF90DF90CF900D
:1017E000BF90AF909F908F907F906F905F904F9041
:1017F0003F902F90089590E0FC01E250FE4F24911D
:10180000FC01E854FE4F8491882399F090E0880F02
:10181000991FFC01E256FE4FA591B491FC01EC57D3
:10182000FE4F859194918FB7F894EC91E22BEC9355
:101830008FBF08952F923F924F925F926F927F9247
:101840008F929F92AF92BF92CF92DF92EF92FF92D0
:101850000F931F93CF93DF93CDB7DEB7AE970FB63D
:10186000F894DEBF0FBECDBF8C011B01CE010196E7
:101870000E94A2016D817E818F8198850E94C3178D
:101880002B013C01F10122803380B801CE01419649
:101890000E94A2016D897E898F89988D0E94C3174D
:1018A0009B01AC01F8010280F381E02DFAA7E9A7C2
:1018B00060EE75E0CE0181962BA73CA74DA75EA7F1
:1018C0000E9489011F921F921F921F921F921F92C6
:1018D0001F921F921F921F92812C912CA12CB12C30
:1018E000C12CD12C720181012BA53CA549A55AA57B
:1018F00062E070E0CE01819691DC0FB6F894DEBF15
:101900000FBECDBFAE960FB6F894DEBF0FBECDBFF3
:10191000DF91CF911F910F91FF90EF90DF90CF90CB
:10192000BF90AF909F908F907F906F905F904F90FF
:101930003F902F9008956F927F928F929F92AF92D7
:10194000BF92CF92DF92EF92FF920F931F93CF93AC
:10195000DF93CDB7DEB76C970FB6F894DEBF0FBE3E
:10196000CDBF8C01BC01CE0101960E94A2016D8108
:101970007E818F8198850E94C3179B01AC01F8017D
:101980006280738060EE75E0CE014196298F3A8FB8
:101990004B8F5C8F0E9489011F921F921F921F9292
:1019A0001F921F921F921F921F921F92812C912CA7
:1019B000A12CB12CC12CD12CE12CF12C00E010E099
:1019C000298D3A8DA30161E070E0CE01419626DCBD
:1019D0000FB6F894DEBF0FBECDBF6C960FB6F8946D
:1019E000DEBF0FBECDBFDF91CF911F910F91FF9052
:1019F000EF90DF90CF90BF90AF909F908F907F90AF
:101A00006F9008958F929F92AF92BF920F931F9302
:101A1000CF93DF93CDB7DEB7A1970FB6F894DEBFB3
:101A20000FBECDBF19A2423008F44AE08E010F5D0F
:101A30001F4F842E912CA12CB12CA50194010E9442
:101A4000CC16E62FB901CA0101501109EA3014F48D
:101A5000E05D01C0E95CD801EC93232B242B252BFE
:101A600061F70115110569F0F80101900020E9F70F
:101A70003197AF01401B510BB8018BE094E08AD83D
:101A800002C080E090E0A1960FB6F894DEBF0FBED2
:101A9000CDBFDF91CF911F910F91BF90AF909F90DD
:101AA0008F900895FF920F931F93CF93DF9300D0F1
:101AB0001F92CDB7DEB738DBFC0197FD11C08D3228
:101AC000910591F0C0970A9778F0E0910B04F0919E
:101AD0000C040680F781E02D8BE094E01995EBCFA4
:101AE00060E070E0CB014BC020E030E0A901F12CB8
:101AF000E130F105F1F0ED32F105C9F0CF01C09709
:101B00000A97B8F4AAE0B0E00E94DF198F01FF0F36
:101B1000220B330BDC01CB01800F911FA21FB31FDF
:101B20009C01AD01205331094109510902C0FF2434
:101B3000F394E0910B04F0910C040680F781E02D02
:101B40008BE094E029833A834B835C831995ECDA2C
:101B5000FC01C09729813A814B815C810A9740F250
:101B6000E130F10529F2FF2041F066277727CB010C
:101B7000621B730B840B950B02C0CA01B9010F9055
:101B80000F900F900F90DF91CF911F910F91FF90C9
:101B90000895362F90E0FC01E25CFE4F4491FC0179
:101BA000E250FE4F2491FC01E854FE4F949199239A
:101BB00009F46BC0442309F455C050E0FA01319791
:101BC000E231F10508F04EC08827E357FF4F8F4FF1
:101BD0000C94EE16809180008F7707C08091800072
:101BE0008F7D03C080918000877F809380003AC002
:101BF00084B58F7702C084B58F7D84BD33C080915A
:101C0000B0008F7703C08091B0008F7D8093B000CB
:101C100029C0809190008F7707C0809190008F7DC0
:101C200003C080919000877F809390001BC08091BB
:101C3000A0008F7707C08091A0008F7D03C08091A6
:101C4000A000877F8093A0000DC0809120018F7736
:101C500007C0809120018F7D03C080912001877F84
:101C600080932001E92FF0E0EE0FFF1FEC57FE4FAD
:101C7000A591B4918FB7F894EC91311103C02095E0
:101C80002E2301C02E2B2C938FBF08958F929F92ED
:101C9000AF92BF92CF92DF92EF92FF926B017C01E5
:101CA0002DD04B015C01C114D104E104F104E9F031
:101CB00025D0DC01CB0188199909AA09BB09883E06
:101CC0009340A105B10578F321E0C21AD108E108DB
:101CD000F10888EE880E83E0981EA11CB11CC11487
:101CE000D104E104F10421F7DECFFF90EF90DF9003
:101CF000CF90BF90AF909F908F9008953FB7F8948A
:101D00008091010690910206A0910306B09104060D
:101D100026B5A89B05C02F3F19F00196A11DB11D46
:101D20003FBFBA2FA92F982F8827820F911DA11D81
:101D3000B11DBC01CD0142E0660F771F881F991FBE
:101D40004A95D1F708951F920F920FB60F92112462
:101D50002F933F938F939F93AF93BF9380917C0377
:101D600090917D03A0917E03B0917F033091000696
:101D700023E0230F2D3720F40196A11DB11D05C0CE
:101D800026E8230F0296A11DB11D20930006809323
:101D90007C0390937D03A0937E03B0937F03809197
:101DA000010690910206A0910306B09104060196E7
:101DB000A11DB11D8093010690930206A093030616
:101DC000B0930406BF91AF919F918F913F912F9156
:101DD0000F900FBE0F901F901895CF93DF93CDB744
:101DE000DEB7C854D1090FB6F894DEBF0FBECDBF21
:101DF000789484B5826084BD84B5816084BD85B5E6
:101E0000826085BD85B5816085BD80916E008160F1
:101E100080936E0010928100809181008260809397
:101E20008100809181008160809381008091800099
:101E30008160809380008091B10084608093B100C4
:101E40008091B00081608093B000809191008260A9
:101E500080939100809191008160809391008091A6
:101E600090008160809390008091A10082608093B7
:101E7000A1008091A10081608093A1008091A000C9
:101E800081608093A0008091210182608093210174
:101E900080912101816080932101809120018160E6
:101EA0008093200180917A00846080937A008091F1
:101EB0007A00826080937A0080917A0081608093BA
:101EC0007A0080917A00806880937A001092C10035
:101ED00080EF92E0A0E8B3E000ED12E0A801BD01C0
:101EE0009C01FB0121933193BF01FA011192AF01D3
:101EF0002C5F3F4FF3E020373F0799F78D939D9379
:101F0000F80111928F010496F3E080379F07B1F733
:101F1000259A269A809101018064809301012E9A6E
:101F2000229A219A209A299881E08DBD80E58CBD66
:101F300080E28093800010926F00109209042D9A25
:101F40002D988093800080E18093810081E090E073
:101F5000909389008093880082E090E090938B00BA
:101F600080938A0080E090E29093870080938600BF
:101F700083E28093B00088E08093B1001092B400B7
:101F800083E08093B3008091B10081608093B100C1
:101F9000809181008160809381000CD980918100C3
:101FA000887F8093810080E29EE4909387008093F5
:101FB000860010928500109284008091B1001092EA
:101FC000B1001092B2009DE49093B3008093B100F1
:101FD000809181008260809381008DE00CDC8EE135
:101FE0000ADC81E208DC61E08EE1D3DD60E081E2C1
:101FF000D0DDE0911B04F0911C0482E08083E0912D
:102000001704F09118041082E0911904F0911A0459
:102010008FEC808310922304E0911F04F091200440
:1020200086E08083E0911D04F0911E048081806130
:102030008083E0911D04F0911E048081886080837C
:10204000E0911D04F0911E04808180688083E091FE
:102050001D04F0911E0480818F7D808330E4732EF7
:102060008BE094E00E941706181619060CF0C8C3FE
:1020700019DD709379036093780314DD709377030F
:10208000609376030FDD70937503609374030ADD2C
:10209000709373036093720305DD6B017C01709391
:1020A0007103609370038091780390917903009796
:1020B00009F099C20E948501E0917603F0917703BF
:1020C0007397EB31F10508F04CC38827EE58FF4FAA
:1020D0008F4F84C668E475E0CE0101960E94A2018C
:1020E00068E575E0CE0141960E94A20168E975E0BD
:1020F000CE0181960E94890109EE13E09E012F5FB7
:102100003F4F49EE53E0BE016F5E7F4FCE01819697
:102110000E94C50268E675E0CE0101960E94A20108
:1021200068E875E0CE0141960E94A20168E975E079
:10213000CE0181960E9489019E012F5F3F4F49EE9B
:1021400053E0BE016F5E7F4FCE0181960E94C502B3
:1021500068E775E0D9C10E945D0403C30E945D0475
:1021600068E575E0CE0101960E94A20168E475E081
:10217000CE0141960E94A20168E975E0CE018196E8
:102180000E9489010AEE13E09E012F5F3F4F4AEE45
:1021900053E0BE016F5E7F4FCE0181960E94C50263
:1021A0008EEE92E00E941E0468E575E0CE01019675
:1021B0000E94A20168E475E0CE0141960E94A2014E
:1021C00068E975E0CE0181960E94890109EE13E06D
:1021D0009E012F5F3F4F49EE53E0BE016F5E7F4F80
:1021E000CE0181960E94C5028EEE92E00E941E04EE
:1021F00068E575E0CE0101960E94A20168E475E0F1
:10220000CE0141960E94A20168E975E0CE01819657
:102210000E9489010AEE13E09E012F5F3F4F4AEEB4
:1022200053E0BE016F5E7F4FCE0181960E94C502D2
:102230008EEE92E00E941E0468E575E0CE010196E4
:102240000E94A20168E475E0CE0141960E94A201BD
:1022500068E975E0CE0181960E94890109EE13E0DC
:102260009E012F5F3F4F49EE53E0BE016F5E7F4FEF
:10227000CE0181960E94C50268E075E0CE0101960C
:102280000E94A20168E175E0CE0141960E94A20180
:1022900068E275E0CE0181960E94A20168E375E0D4
:1022A000CE01C1960E94A20160EF75E0CE018F5B66
:1022B0009F4F0E9489019CED892E912CAE014F5FAA
:1022C0005F4F5A0126EEC22ED12CCE0141967C01E1
:1022D00009E011E09E012F5D3F4F49E051E0BE0152
:1022E0006F5C7F4FC0960E94CD010E94300339C2BF
:1022F00068E675E0CE0101960E94A20168E875E0EB
:1023000059C068E775E0CE0101960E94A20168E914
:1023100075E0CE0141960E94890140EA50E000C17B
:1023200068E475E0CE0101960E94A20168E575E0BF
:10233000CE0141960E94A201BE016F5F7F4FCE0188
:10234000419678DA68E675E0CE0101960E94A20116
:1023500068E875E0CE0141960E94A201BE016F5F60
:102360007F4FCE01419666DA68E775E0CE010196AF
:102370000E94A201CE010196DEDA68EE74E0CE0181
:1023800001960E94A20168E975E0CE0141960E9483
:10239000890149EE53E0BE016F5F7F4FCE01419648
:1023A0000E94640268EC74E0CE0101960E94A201D2
:1023B00068ED74E0CE0141960E94A20168E975E0E3
:1023C000CE0181960E94890109EE13E09E012F5FE4
:1023D0003F4F49EE53E0FFC068EE74E0CE01019636
:1023E0000E94A20168E975E0CE0141960E94890130
:1023F0004AEE53E095C068EC74E0CE0101960E946D
:10240000A20168ED74E0CE0141960E94A201BE01D6
:102410006F5F7F4FCE0141960DDAA3C183E0E82EB6
:10242000F12C68EC74E0CE0101960E94A20168EDE7
:1024300074E0CE0141960E94A20168E975E0CE01E8
:1024400081960E9489010AEE13E09E012F5F3F4FA3
:102450004AEE53E0BE016F5E7F4FCE0181960E942F
:10246000C50288EE93E00E941E0468EC74E0CE0181
:1024700001960E94A20168ED74E0CE0141960E948F
:10248000A20168E975E0CE0181960E94890108EEFB
:1024900013E09E012F5F3F4F48EE53E0BE016F5E99
:1024A0007F4FCE0181960E94C50288EE93E00E9484
:1024B0001E0491E0E91AF10809F0B3CF68EC74E06A
:1024C000CE0101960E94A20168ED74E0CE01419612
:1024D0000E94A20168E975E0CE0181960E948901FF
:1024E00009EE13E09E012F5F3F4F49EE53E0BE011E
:1024F0006F5E7F4FCE0181960E94C50280ED97E00E
:102500000E941E0468EE74E0CE0101960E94A201B2
:1025100068E975E0CE0141960E94890149EE53E0D9
:10252000BE016F5F7F4FCE0141960E94640219C1C8
:1025300068EB74E0CE0101960E94A20168EA74E0A3
:10254000CE0141960E94A20168E975E0CE01819614
:102550000E94890109EE13E09E012F5F3F4F49EE73
:1025600053E0BE016F5E7F4FCE0181960E94C5028F
:1025700068EC74E0CE0101960E94A20168ED74E05F
:10258000CE0141960E94A20168E975E0CE018196D4
:102590000E94890108EE13E09E012F5F3F4F48EE35
:1025A00053E019C068EA74E0CE0101960E94A201CE
:1025B00068EB74E0CE0141960E94A20168E975E0E3
:1025C000CE0181960E9489010AEE13E09E012F5FE1
:1025D0003F4F4AEE53E0BE016F5E7F4FCE018196C2
:1025E0000E94C502BEC08130910549F46091740318
:1025F00070917503809176039091770312C08230B9
:102600009105C1F460917403709175038091760314
:10261000909177030E946408B601809172039091B3
:1026200073030E9464080E94DA0884E690E00E9426
:102630001E0416CD8530910581F50E9485010AE0C2
:1026400010E080917B00877F80937B0070927C00FC
:1026500080917A00806480937A0080917A0086FD70
:10266000FCCF809178002091790090E0FC01F22B62
:1026700061E070E080E090E0E636F1051CF060E09B
:1026800070E0CB014AE0BED962E370E080E090E008
:10269000FDDA01501109A9F664C08A30910559F498
:1026A0006091740370917503809176039091770324
:1026B0000E946408D5CC8B30910519F40E94DA0889
:1026C000CFCC87339105D9F468EE73E080E090E0D9
:1026D000DDDA0AE010E0E0910B04F0910C040190C7
:1026E000F081E02D60E38BE094E0199562E370E007
:1026F00080E090E0CBDA0150110969F7B1CC833664
:10270000910591F50E94850168E475E0CE0101967E
:102710000E94A20168E575E0CE0141960E94A201E7
:10272000BE016F5F7F4FCE01419684D868E675E0A9
:10273000CE0101960E94A20168E875E0CE014196A3
:102740000E94A201BE016F5F7F4FCE01419672D8F9
:1027500068E775E0CE0101960E94A201CE010196C4
:10276000EAD80E9481017CCC8236910509F078CCB0
:102770000E94850188E895E00E94E60388E795E0DD
:102780000E94E60388E695E00E94E60388E595E06E
:102790000E94E60388E495E00E94E60388E395E062
:1027A0000E94E60388E295E00E94E60388E195E056
:1027B0000E94E60388E095E00E94E60388EF94E03B
:1027C0000E94E60388EE94E00E94E60388ED94E020
:1027D0000E94E60388EC94E00E94E60388EA94E015
:1027E0000E94E60388EB94E00E94E60388EE93E003
:1027F0000E941E040E94810161E081E2CAD930CCAE
:102800000E94B4062BCC08954F925F926F927F92F4
:102810008F929F92AF92BF92CF92DF92EF92FF92F0
:102820000F931F93CF93DF93EBE0F4E013821282B8
:1028300088EE93E0A0E0B0E084839583A683B7831D
:102840008AE092E09183808385EC90E0958784878D
:1028500084EC90E09787868780EC90E0918B808B6A
:1028600081EC90E0938B828B82EC90E0958B848B53
:1028700086EC90E0978B868B118E128E138E148EC1
:10288000E8EFF5E082E492E0918380832FE0C22EAE
:10289000D12CD382C2822AEF30E03583248334ECFA
:1028A000E32E39E0F32EF782E682E0EFF5E0918344
:1028B0008083D382C28220E530E03583248368EEB2
:1028C00073E077836683E8EEF5E091838083A2E08E
:1028D000B0E0B383A2832EEE32E035832483C0EDD3
:1028E000D7E0D783C683E0EEF5E09183808324E1CF
:1028F00030E03383228324E630E03583248304EF01
:1029000011E017830683E8EDF5E0918380834DE2C3
:1029100050E05383428348E750E055834483D78394
:10292000C683E0EDF5E0918380834AE050E0538375
:1029300042830F2EFEE5AF2EBB24B394F02DB5825B
:10294000A48277836683E8ECF5E091838083D38269
:10295000C2820F2EFCE2CF2EDD24D394F02DD5823F
:10296000C48237832683E0ECF5E0918380830F2EC9
:10297000F6E0AF2EB12CF02DB382A282D582C482B4
:1029800037832683E8EBF5E091838083538342838A
:1029900035832483F782E682E0EBF5E09183808340
:1029A000538342833583248317821682E8EAEE2E0E
:1029B000E5E0FE2EF701918380830F2EF5E08F2E48
:1029C000912CF02D93828282358324831783068392
:1029D00000EA15E0F80191838083B383A283D58355
:1029E000C48377836683C8E9D5E09983888381E0CF
:1029F00090E09B838A833D832C837F836E83C8E82A
:102A0000D5E09B838A8300E010E020EA33E40C8366
:102A10001D832E833F838EE292E09983888300E0BA
:102A200010E02CEC32E40C871D872E873F87C12CE9
:102A3000D12C6AEFE62E63E4F62EC886D986EA86A4
:102A4000FB86C8E7D5E0BB83AA83C12C70E8D72EEC
:102A50007BEBE72E73E4F72ECC82DD82EE82FF82E1
:102A6000998388830C871D872E873F87C886D986E0
:102A7000EA86FB86A8E6B5E063E070E013967C93F7
:102A80006E931297C12CD12CE6E6EE2EE3E4FE2ED7
:102A90001496CD92DD92ED92FC92179711969C932D
:102AA0008E93C12CD12CF1EFEF2EF3E4FF2E1C9668
:102AB000CD92DD92ED92FC921F9718960D931D9387
:102AC0002D933C931B97A8E5B5E060E170E0139669
:102AD0007C936E931297412CC0E85C2ECDEE6C2E49
:102AE000C3E47C2E14964D925D926D927C92179762
:102AF00011969C938E93C12CD12CD2E0ED2ED3E471
:102B0000FD2E1C96CD92DD92ED92FC921F971896A9
:102B10004D925D926D927C921B97A8E4B5E061E1C5
:102B200070E013967C936E9312971496CD92DD927B
:102B3000ED92FC92179711969C938E93412C512CF9
:102B40006FEE662E63E4762E1C964D925D926D922A
:102B50007C921F971896CD92DD92ED92FC921B9776
:102B6000A8E3B5E013969C928E921297C12CD12CBB
:102B700078E4E72E73E4F72E1496CD92DD92ED9271
:102B8000FC92179711969C938E931C96CD92DD9292
:102B9000ED92FC921F971896CD92DD92ED92FC92E9
:102BA0001B97E8E2F5E0B382A282812C912CAEEB78
:102BB000AA2EA3E4BA2E84829582A682B78291833C
:102BC000808384869586A686B78680869186A2862F
:102BD000B386E8E1F5E067E070E073836283812CFF
:102BE000912CBCE8AB2EB3E4BB2E84829582A682E6
:102BF000B7829183808384869586A686B7868086F1
:102C00009186A286B386E8E0F5E068E070E0738321
:102C10006283412C512CC8EC6C2EC3E47C2E448280
:102C20005582668277829183808344865586668644
:102C300077864086518662867386E8EFF4E06EE020
:102C400070E07383628384829582A682B7829183C7
:102C5000808384869586A686B78680869186A2869E
:102C6000B386E8EEF4E069E070E073836283412CA0
:102C7000512CD5EA6D2ED3E47D2E44825582668296
:102C8000778291838083812C912C68EDA62E62E45B
:102C9000B62E84869586A686B7864086518662863D
:102CA0007386E8EDF4E05383428340E050E06AE746
:102CB00073E444835583668377839183808340E004
:102CC00050E06CE073E4448755876687778740E07F
:102CD00050E061EE73E44087518762877387E8ECC8
:102CE000F4E04BE050E05383428340E050E06AEA76
:102CF00073E444835583668377839183808340E0C4
:102D000050E060EF73E44487558766877787C08615
:102D1000D186E286F386E8EBF4E04DE050E05383A1
:102D2000428340E050E066EE73E44483558366835B
:102D30007783918380830487158726873787408729
:102D4000518762877387E8EAF4E02CE030E0338350
:102D5000228384829582A682B7829183808380E0D9
:102D600090E0A0E0B4E484879587A687B787808643
:102D70009186A286B386DF91CF911F910F91FF902C
:102D8000EF90DF90CF90BF90AF909F908F907F900B
:102D90006F905F904F900895A1E21A2EAA1BBB1B63
:102DA000FD010DC0AA1FBB1FEE1FFF1FA217B30717
:102DB000E407F50720F0A21BB30BE40BF50B661F2D
:102DC000771F881F991F1A9469F7609570958095F1
:102DD00090959B01AC01BD01CF010895EE0FFF1F3F
:102DE000881F8BBF0790F691E02D19945058BB2790
:102DF000AA270ED0AAC29BD230F0A0D220F031F484
:102E00009F3F11F41EF490C20EF4E095E7FB86C2DA
:102E1000E92FACD280F3BA176207730784079507CE
:102E200018F071F49EF5C4C20EF4E0950B2EBA2F83
:102E3000A02D0B01B90190010C01CA01A0011124C0
:102E4000FF27591B99F0593F50F4503E68F11A166C
:102E5000F040A22F232F342F4427585FF3CF4695FD
:102E600037952795A795F0405395C9F77EF41F161F
:102E7000BA0B620B730B840BBAF09150A1F0FF0FE9
:102E8000BB1F661F771F881FC2F70EC0BA0F621FD5
:102E9000731F841F48F4879577956795B795F795C5
:102EA0009E3F08F0B3CF9395880F08F09927EE0F57
:102EB0009795879508950CD048C240D240F037D2FC
:102EC00030F021F45F3F19F029C2511172C22CC2B7
:102ED0004DD298F39923C9F35523B1F3951B550BA4
:102EE000BB27AA2762177307840738F09F5F5F4FDD
:102EF000220F331F441FAA1FA9F333D00E2E3AF01E
:102F0000E0E830D091505040E695001CCAF729D037
:102F1000FE2F27D0660F771F881FBB1F2617370786
:102F20004807AB07B0E809F0BB0B802DBF01FF27B6
:102F300093585F4F2AF09E3F510568F0EFC139C2A8
:102F40005F3FECF3983EDCF3869577956795B795F0
:102F5000F7959F5FC9F7880F911D9695879597F90B
:102F60000895E1E0660F771F881FBB1F6217730784
:102F70008407BA0720F0621B730B840BBA0BEE1F99
:102F800088F7E095089504D06894B11112C20895AD
:102F9000F5D188F09F5790F0B92F9927B751A0F03D
:102FA000D1F0660F771F881F991F1AF0BA95C9F7DD
:102FB00012C0B13081F0FCD1B1E00895F9C1672FA2
:102FC000782F8827B85F39F0B93FCCF3869577958D
:102FD0006795B395D9F73EF4909580957095619576
:102FE0007F4F8F4F9F4F089575D108F48FEF08954D
:102FF000CF93DF938230910510F482E090E0E0916E
:103000000706F091080620E030E0C0E0D0E03097FD
:1030100011F14081518148175907C0F048175907ED
:1030200061F482819381209719F09B838A832BC05E
:10303000909308068093070626C02115310519F0E4
:103040004217530718F49A01BE01DF01EF01028015
:10305000F381E02DDCCF2115310509F1281B390B57
:103060002430310590F412968D919C91139761153F
:10307000710521F0FB019383828304C090930806BD
:1030800080930706FD01329644C0FD01E20FF31F55
:1030900081939193225031092D933C933AC0209112
:1030A000050630910606232B41F42091020230914F
:1030B000030230930606209305062091000230910A
:1030C00001022115310541F42DB73EB740910402AC
:1030D00050910502241B350BE0910506F091060680
:1030E000E217F307A0F42E1B3F0B2817390778F0DF
:1030F000AC014E5F5F4F2417350748F04E0F5F1F3E
:1031000050930606409305068193919302C0E0E038
:10311000F0E0CF01DF91CF9108950F931F93CF93EC
:10312000DF93009709F48CC0FC013297138212825E
:1031300000910706109108060115110581F4208100
:103140003181820F931F20910506309106062817C2
:10315000390779F5F0930606E093050671C0D801AA
:1031600040E050E0AE17BF0750F412962D913C910D
:103170001397AD012115310509F1D901F3CF9D0157
:10318000DA013383228360817181860F971F821752
:10319000930769F4EC0128813981260F371F2E5FD0
:1031A0003F4F318320838A819B8193838283452B88
:1031B00029F4F0930806E093070642C01396FC93A7
:1031C000EE931297ED01499159919E01240F351FFD
:1031D000E217F30771F480819181840F951F0296A5
:1031E00011969C938E938281938113969C938E93D8
:1031F0001297E0E0F0E0D80112968D919C91139720
:10320000009719F0F8018C01F6CF8D919C919801EF
:103210002E5F3F4F820F931F2091050630910606C7
:103220002817390769F4309729F41092080610928C
:10323000070602C013821282109306060093050649
:10324000DF91CF911F910F91089581E090E0F89464
:10325000CFC040D008F481E00895E89409C097FBFE
:103260003EF490958095709561957F4F8F4F9F4F5D
:103270009923A9F0F92F96E9BB279395F6958795A1
:1032800077956795B795F111F8CFFAF4BB0F11F464
:1032900060FF1BC06F5F7F4F8F4F9F4F16C088230B
:1032A00011F096E911C0772321F09EE8872F762F41
:1032B00005C0662371F096E8862F70E060E02AF082
:1032C0009A95660F771F881FDAF7880F969587956E
:1032D00097F90895990F0008550FAA0BE0E8FEEF43
:1032E00016161706E807F907C0F012161306E407CA
:1032F000F50798F0621B730B840B950B39F40A26C3
:1033000061F0232B242B252B21F408950A2609F4A0
:10331000A140A6958FEF811D811D089597F99F67A4
:1033200080E870E060E008959FEF80EC089500244D
:103330000A941616170618060906089500240A941A
:1033400012161306140605060895092E0394000CA0
:1033500011F4882352F0BB0F40F4BF2B11F460FF2F
:1033600004C06F5F7F4F8F4F9F4F089557FD905858
:10337000440F551F59F05F3F71F04795880F97FB39
:10338000991F61F09F3F79F08795089512161306F3
:103390001406551FF2CF4695F1DF08C01616170622
:1033A0001806991FF1CF8695710561050894089557
:1033B000E894BB2766277727CB0197F9089509D0B2
:1033C000A59F900DB49F900DA49F800D911D112479
:1033D0000895A29FB001B39FC001A39F700D811DEE
:1033E0001124911DB29F700D811D1124911D08950E
:1033F00011E0C3E2D1E000E005C0802FFE01EEDC69
:103400002196011DC432D10780E00807B1F7F89476
:02341000FFCFEC
:10341200000009068000000000004D06CA051706DC
:10342200F50509069306000000002D08C7073E07B0
:1034320035072C0723071407EC06000000002E08AE
:10344200CB07BC07B307AA07A10774074707000009
:0634520000002C08C90770
:00000001FF
