:1000000008C1000037C1000035C1000033C1000045
:1000100031C100002FC100002DC100002BC1000024
:1000200029C1000027C1000025C1000023C1000034
:1000300021C100001FC100001DC100001BC1000044
:1000400019C1000017C1000015C1000013C1000054
:10005000A2C700000FC100000DC100000C949B0A54
:1000600009C1000067C100003CC1000003C10000DD
:1000700001C10000FFC00000FDC00000FBC0000087
:10008000F9C00000F7C00000F5C00000F3C0000098
:10009000F1C00000EFC00000EDC00000EBC00000A8
:1000A000E9C00000E7C00000E5C00000E3C00000B8
:1000B000E1C00000DFC00000DDC00000DBC00000C8
:1000C000D9C00000D7C00000D5C00000D3C00000D8
:1000D000D1C00000CFC00000CDC00000CBC00000E8
:1000E000C9C00000280A2B0A1A0A1E0A220A620A3C
:1000F0002F0A330A390A3D0A410A470A4B0A4F0AB6
:10010000620A550A590A5D0A0000220025002800EB
:100110002B002E003100340002010000050108010F
:100120000B0100002100240027002A002D003000D0
:10013000330001010000040107010A01050505055E
:10014000070508080808020202020A0A080804044F
:10015000040401010101010101010303030303037D
:100160000303040707070C0C0C0C0C0C0C0C02020C
:10017000020206060606060606060B0B0B0B0B0B09
:100180000B0B010210202008081020401020408096
:10019000020102010804020101020408102040804B
:1001A00080402010080402018004020180402010D9
:1001B0000804020108040201010204081020408022
:1001C000010204081020408000000A0B02090C0DF7
:1001D0000E080703040100000000000000000000FA
:1001E000000000000000000000000000000000000F
:1001F00000000000121110000000000000000000CC
:100200000000000000000000000000000000390EA7
:10021000830F11241FBECFEFD1E2DEBFCDBF00E0C0
:100220000CBF12E0A0E0B2E0E2E8F5E200E00BBFB4
:1002300002C007900D92A634B107D9F725E0A6E4D5
:10024000B2E001C01D92A135B207E1F711E0C8E0AC
:10025000D1E000E006C021970109802FFE010E9435
:10026000A60FC730D10780E00807A9F70E94E50A6A
:100270000C94B012C5CECF92DF92EF92FF920F9303
:100280001F93CF93DF936C017A018B01C0E0D0E024
:10029000CE15DF0589F0D8016D918D01D601ED9164
:1002A000FC910190F081E02DC6011995892B11F484
:1002B0007E0102C02196ECCFC701DF91CF911F9143
:1002C0000F91FF90EF90DF90CF9008958EE793E02D
:1002D00089D421E0892B09F420E0822F08950E941F
:1002E000DD111F920F920FB60F9211240BB60F92D1
:1002F0002F933F934F935F936F937F938F939F932E
:10030000AF93BF93EF93FF938EE793E0B9D5FF913F
:10031000EF91BF91AF919F918F917F916F915F917D
:100320004F913F912F910F900BBE0F900FBE0F90EA
:100330001F9018951F920F920FB60F9211240BB6B3
:100340000F922F938F939F93EF93FF93E0918E03E0
:10035000F0918F038081E0919403F091950382FDE9
:1003600012C09081809197038F5F8F7320919803C3
:10037000821751F0E0919703F0E0E258FC4F958F1F
:100380008093970301C08081FF91EF919F918F919E
:100390002F910F900BBE0F900FBE0F901F901895CE
:1003A00080917D0381112EC090E290938000909106
:1003B000BB04992319F01092BB0402C0299A299812
:1003C000E4E3F3E090819EBD0DB407FEFDCF918183
:1003D0009EBD0DB407FEFDCF3396DF0111979C91B2
:1003E0009EBD0DB407FEFDCF93E0EC37F90750F347
:1003F00091E090937D0320EA20938000B09A90933F
:100400006F00089581E008952F923F924F925F927E
:100410006F927F928F929F92AF92BF92CF92DF9214
:10042000EF92FF920F931F93CF93DF93CDB7DEB779
:1004300066970FB6F894DEBF0FBECDBFFC016B010F
:100440001A011C830B834DB75EB75A8B498B6281AF
:1004500073817A876987848195819E878D87A6813C
:10046000B781B88BAF87C6010197A601440F551F0E
:10047000440F551FEDB7FEB7E41BF50B0FB6F8940C
:10048000FEBF0FBEEDBF6DB77EB76F5F7F4F7C873E
:100490006B87ADB7BEB7A41BB50B0FB6F894BEBF44
:1004A0000FBEADBF0DB71EB70F5F1F4FA601440FA4
:1004B000551FEDB7FEB7E41BF50B0FB6F894FEBF62
:1004C0000FBEEDBF4DB75EB74F5F5F4F5A011C14B3
:1004D0001D040CF08FC0D101AA0FBB1FAC50BD4F43
:1004E0000D90BC91A02D4D915D916D917C91D801A5
:1004F0004D935D936D937C931397328321831816EC
:1005000019060CF077C0AB81BC81AA0FBB1FAC50A1
:10051000BD4F0D90BC91A02D4D915D916D917C9141
:10052000F8014483558366837783D5011396FC9243
:10053000EE921297B3E0CB16D1040CF45BC0A091FD
:10054000F402B091F5028D919D910D90BC91A02D7A
:1005500080879187A287B387F50115821482F4E022
:10056000CF16D1040CF446C0F80184879587A6877E
:10057000B787F50117821682F5E0CF16D104D4F1C2
:10058000F801808B918BA28BB38BF50111861086BD
:10059000F6E0CF16D10474F1F801848B958BA68B0D
:1005A000B78BF50113861286F7E0CF16D10414F14C
:1005B000F801808F918FA28FB38FF5011586148675
:1005C000F8E0CF16D104B4F0F801848F958FA68F90
:1005D000B78FF50117861686F9E0CF16D10454F0CF
:1005E000F80180A391A3A2A3B3A3D50151961C92B5
:1005F0001E925097BA82A982EB85FC85F887EF831B
:100600001E830D83E12CF12C29853A854901330F96
:10061000AA08BB08EC14FD04B1F1A981BA816D915F
:100620007D91BA83A983ED81FE8121913191419120
:100630005191FE83ED83072E000C880B990B2B8BB9
:100640003C8B4D8B5E8B0E94E7112B893C894D8939
:100650005E890E94AE0F2B013C01C501B4010E94CE
:10066000E7119B01AC01C301B2010E941310AF81DD
:10067000B8856D937D938D939D93B887AF83BFEFBE
:10068000EB1AFB0AC7CF612C712CC101880F991F8F
:10069000FC01EC50FD4FFA83E9838B819C81880F2C
:1006A000991F9C012C503D4F290129853A856216DE
:1006B000730609F401C158018B849C84E12CF12C50
:1006C000EC14FD04B9F0D4012D913D914D915D9153
:1006D0004D01F50160817181828193810E94AF0F8C
:1006E000D5016D937D938D939D935D01BFEFEB1AC3
:1006F000FB0AE6CF1C141D040CF0D6C0F801608183
:100700007181828193810E947B10C10179D4A9817A
:10071000BA812D913C91F80180819181A281B381B0
:10072000F90180839183A283B383F1E0CF16D104D2
:1007300009F4BAC0D80114968D909D90AD90BC90EC
:100740001797C501B4010E947B108B819C8158D4FE
:10075000D201ED91FC9180829182A282B382B2E0BB
:10076000CB16D10409F4A0C0F80180849184A2843E
:10077000B384C501B4010E947B1080E090E040D4B6
:10078000E090F402F090F502D7018D929D92AD9227
:10079000BC921397B3E0CB16D10409F485C0F801DD
:1007A00084849584A684B784C501B4010E947B101B
:1007B00080E090E025D4D7018D929D92AD92BC92BD
:1007C0001397B4E0CB16D10409F46EC0F801808809
:1007D0009188A288B388C501B4010E947B1080E093
:1007E00090E00ED4D7018D929D92AD92BC9213975A
:1007F000B5E0CB16D10409F457C0F8018488958878
:10080000A688B788C501B4010E947B1080E090E003
:10081000F7D3D7018D929D92AD92BC921397B6E01B
:10082000CB16D10409F440C0F801808C918CA28CC5
:10083000B38CC501B4010E947B1080E090E0E0D34E
:10084000D7018D929D92AD92BC921397B7E0CB16D3
:10085000D10451F1F801848C958CA68CB78CC5011C
:10086000B4010E947B1080E090E0CAD3D7018D9242
:100870009D92AD92BC921397B8E0CB16D104A1F033
:10088000F80164A175A186A197A10E947B1080E068
:1008900090E0B6D3F80180A191A1A2A1B3A1F70184
:1008A00080839183A283B3837BDD8D859E85ECD489
:1008B000FFEF6F1A7F0AF9CE8F859889E5D44989B1
:1008C0005A890FB6F8945EBF0FBE4DBF66960FB63D
:1008D000F894DEBF0FBECDBFDF91CF911F910F9176
:1008E000FF90EF90DF90CF90BF90AF909F908F9050
:1008F0007F906F905F904F903F902F90089590E081
:10090000FC01EE57FE4F2491FC01E45CFE4F849104
:10091000882399F090E0880F991FFC01EE5DFE4F4F
:10092000A591B491FC01E85FFE4F859194918FB73A
:10093000F894EC91E22BEC938FBF08958F929F92E5
:10094000AF92BF92CF92DF92EF92FF920F931F93DD
:10095000CF93DF93CDB7DEB7AC970FB6F894DEBF79
:100960000FBECDBF6C018B01CE01019698D36D8176
:100970007E818F8198850E947B104B015C01F8017C
:1009800002811381B601CE01419689D36D897E899A
:100990008F89988D0E947B109B01AC01F601C2806B
:1009A000D38063EB74E0CE01819629A73AA74BA7C9
:1009B0005CA75CD3740129A53AA5A60162E070E0AA
:1009C000CE01819621DDAC960FB6F894DEBF0FBE46
:1009D000CDBFDF91CF911F910F91FF90EF90DF90EE
:1009E000CF90BF90AF909F908F900895CF92DF925D
:1009F000EF92FF920F931F93CF93DF93CDB7DEB7A4
:100A00006C970FB6F894DEBF0FBECDBF8C01BC0152
:100A1000CE01019644D36D817E818F8198850E949D
:100A20007B109B01AC01F801C280D38063EB74E0C2
:100A3000CE014196298F3A8F4B8F5C8F17D3E12CD3
:100A4000F12C00E010E0298D3A8DA60161E070E004
:100A5000CE014196D9DC6C960FB6F894DEBF0FBE7E
:100A6000CDBFDF91CF911F910F91FF90EF90DF905D
:100A7000CF9008958F929F92AF92BF920F931F9342
:100A8000CF93DF93CDB7DEB7A1970FB6F894DEBF53
:100A90000FBECDBF19A2423008F44AE08E010F5DAF
:100AA0001F4F842E912CA12CB12CA50194010E94E2
:100AB000840FE62FB901CA0101501109EA3014F47C
:100AC000E05D01C0E95CD801EC93232B242B252B9E
:100AD00061F70115110569F0F80101900020E9F7AF
:100AE0003197AF01401B510BB8018EE793E0C3DB98
:100AF00002C080E090E0A1960FB6F894DEBF0FBE72
:100B0000CDBFDF91CF911F910F91BF90AF909F907C
:100B10008F9008952FB7F8948091F0029091F10290
:100B2000A091F202B091F3022FBF809386039093BD
:100B30008703A0938803B0938903E0917E03F0912B
:100B40007F030084F185E02D8EE793E0199597FFF0
:100B500026C02FB7F8948091F0029091F102A091F5
:100B6000F202B091F3022FBF4091860350918703A8
:100B70006091880370918903841B950BA60BB70BBA
:100B800040918203509183036091840370918503A7
:100B900084179507A607B70780F28FEF9FEF089598
:100BA000FC01918D828D981761F0828DDF01A80F75
:100BB000B11D5D968C91928D9F5F9F73928F90E097
:100BC00008958FEF9FEF0895FC01918D828D981706
:100BD00031F0828DE80FF11D858D90E008958FEF43
:100BE0009FEF0895FC01918D228D892F90E0805C0C
:100BF0009F4F821B91098F739927089580E090E0A1
:100C0000892B19F063DB811125C080E090E0892BEE
:100C100041F080E090E0892B21F00E9400008111DA
:100C20001CC080E090E0892B41F080E090E0892BAF
:100C300021F00E940000811113C080E090E0892B18
:100C4000A1F080E090E0892B81F00E9400008111EA
:100C50000AC008950E940000D8CF0E940000E1CF92
:100C60000E940000EACF0C9400000895CF92DF921A
:100C7000EF92FF92FC01C480D580E680F78020E0EF
:100C800030E047EE53E4C701B6010E94E11120E0D5
:100C900030E040E252E418162CF0C701B6010E9481
:100CA000AF0F04C0C701B6010E94AE0F0E947B10B7
:100CB000CB01FF90EF90DF90CF90089520E030E0DF
:100CC00040E251E4FC0164817581868197810E9434
:100CD000AF0F0E947B10CB010895FC0164817581E8
:100CE000868197810E947B10CB010895FC0164816D
:100CF0007581868197810E947B10CB010895FC014C
:100D000064817581868197810E947B10CB01089553
:100D1000FC0164817581868197810E947B10CB01E3
:100D20000895CF92DF92EF92FF92FC01C480D580AC
:100D3000E680F7802085318542855385C701B6015D
:100D40000E94AE0F20E030E0A9010E94AC1020E02C
:100D500030E048EC51E487FD05C0C701B6010E94B0
:100D6000AE0F04C0C701B6010E94AF0F0E947B10F6
:100D7000CB01FF90EF90DF90CF900895CF92DF925C
:100D8000EF92FF92FC01C480D580E680F780208539
:100D9000318542855385C701B6010E94AE0F20E020
:100DA00030E0A9010E94AC1020E030E040E251E4C4
:100DB00087FD05C0C701B6010E94AE0F04C0C70180
:100DC000B6010E94AF0F0E947B10CB01FF90EF9005
:100DD000DF90CF900895FC016085718582859385B1
:100DE0000E947B10CB010895FC0164857585868582
:100DF00097850E947B10CB010895FC016085718569
:100E0000828593850E947B10CB010895FC01648547
:100E10007585868597850E947B10CB010895FC011E
:100E20006A3E83E07807C1F04CF4683E83E07807BF
:100E300071F0693E83E07807A1F019C06B3E83E052
:100E4000780779F06C3E83E0780731F010C0648158
:100E500075818681978109C06485758586859785AA
:100E600004C060857185828593850E947B10972FD1
:100E7000862F08950C9445110C9445110C9445113E
:100E8000FC01848DDF01A80FB11DA35ABF4F2C9127
:100E9000848D90E001968F739927848FA689B789F6
:100EA0002C93A089B1898C9180648C93938D848DCF
:100EB000981306C00288F389E02D80818F7D80839E
:100EC0000895EF92FF920F931F93CF93DF93EC015E
:100ED00081E0888F9B8D8C8D981305C0E889F989F6
:100EE000808185FD23C0F62E0B8D10E00F5F1F4F14
:100EF0000F731127E02E8C8DE8120BC00FB607FC84
:100F0000FACFE889F989808185FFF5CFCE01B8DF76
:100F1000F2CF8B8DFE01E80FF11DE35AFF4FF082F7
:100F20000B8FEA89FB898081806207C0EE89FF8987
:100F30006083E889F98980818064808381E090E022
:100F4000DF91CF911F910F91FF90EF900895CF9374
:100F5000DF93EC01888D8823C1F0EA89FB898081C9
:100F600085FD05C0A889B9898C9186FD0EC00FB694
:100F700007FCF5CF808185FFF2CFA889B9898C91D4
:100F800085FFEDCFCE017CDFE8CFDF91CF910895D3
:100F90000895089508951F920F920FB60F9211248D
:100FA0000BB60F922F933F934F935F936F937F9363
:100FB0008F939F93AF93BF93EF93FF9380E28093C0
:100FC000800010926F0010927D03E0914605F09131
:100FD0004705309711F078941995FF91EF91BF91E3
:100FE000AF919F918F917F916F915F914F913F91C1
:100FF0002F910F900BBE0F900FBE0F901F90189562
:10100000663671053CF0613092E079072CF060E0C3
:1010100072E002C066E670E020E030E1261B370B8C
:101020009FE2981B892F93E0899FF0011124F69588
:10103000E795EC5CFC4F80FF05C08081807F832BAF
:1010400080830CC0C90134E0969587953A95E1F705
:1010500080832295207F81818F70282B21830895A2
:1010600061E08EE1C7C160E08EE1C4C1FC01DB013B
:1010700082E492E09183808312968D919C911397E4
:101080009383828314968D919C9115979583848385
:1010900016968D919C911797978386830895FC01EE
:1010A000DB0112968D919C91139793838283149602
:1010B0004D915D916D917C91179744835583668323
:1010C00077838EE292E09183808318964D915D91B3
:1010D0006D917C911B9740875187628773871C961F
:1010E0008D919D910D90BC91A02D84879587A687A9
:1010F000B7870895AF92BF92CF92DF92EF92FF929F
:101100000F931F93CF93DF93CDB7DEB768970FB6DA
:10111000F894DEBF0FBECDBF7C018B016A01CE010A
:101120000196BDDFB601CE01019679DE5C01F801C2
:10113000C280D380B701CE01419698DFE12CF12C1B
:1011400000E010E09501A60161E070E0CE0141965B
:101150005BD968960FB6F894DEBF0FBECDBFDF91A6
:10116000CF911F910F91FF90EF90DF90CF90BF90A4
:10117000AF9008956F927F928F929F92AF92BF929D
:10118000CF92DF92EF92FF920F931F93CF93DF9353
:10119000CDB7DEB7A8970FB6F894DEBF0FBECDBFB0
:1011A0004C016B013A015901B901CE01419677DF3B
:1011B000B801CE01419633DE7C01F5010281138135
:1011C000B601CE0101966BDFB301CE01019627DE99
:1011D0005C01F601C280D380B401CE01819646DF66
:1011E0009501A60162E070E0CE0181960DD9A89626
:1011F0000FB6F894DEBF0FBECDBFDF91CF911F9128
:101200000F91FF90EF90DF90CF90BF90AF909F90A5
:101210008F907F906F900895CF92DF92EF92FF9220
:10122000FC0122813381C480D580E680F780A9014A
:10123000440F551FFA01EC50FD4F0190F081E02D55
:10124000C082D182E282F382FA01EA5FFA4F91838F
:101250008083F901EA5BFD4F41E040832091040562
:1012600030910505F901EE0FFF1FEC53FB4F918301
:1012700080832F5F3F4F3093050520930405FF9037
:10128000EF90DF90CF900895CF92DF92EF92FF9290
:101290000F931F93092E000CAA0BBB0B2FB7F894CA
:1012A0004091F0025091F1026091F2027091F302CC
:1012B0002FBF4093C0045093C1046093C204709345
:1012C000C3040091BC041091BD042091BE04309170
:1012D000BF046A017B01C01AD10AE20AF30A8C1525
:1012E0009D05AE05BF05D0F64093BC045093BD04E8
:1012F0006093BE047093BF041F910F91FF90EF9015
:10130000DF90CF900895FF920F931F93CF93DF93B9
:1013100000D01F92CDB7DEB7FDDBFC0197FD11C0F9
:101320008D32910591F0C0970A9778F0E0917E0395
:10133000F0917F030680F781E02D8EE793E0199509
:10134000EBCF60E070E0CB014BC020E030E0A901C2
:10135000F12CE130F105F1F0ED32F105C9F0CF01EA
:10136000C0970A97B8F4AAE0B0E00E9497128F01E4
:10137000FF0F220B330BDC01CB01800F911FA21F4B
:10138000B31F9C01AD01205331094109510902C02D
:10139000FF24F394E0917E03F0917F030680F781B0
:1013A000E02D8EE793E029833A834B835C83199584
:1013B000B1DBFC01C09729813A814B815C810A979E
:1013C00040F2E130F10529F2FF2041F0662777274E
:1013D000CB01621B730B840B950B02C0CA01B901D0
:1013E0000F900F900F900F90DF91CF911F910F9161
:1013F000FF900895362F90E0FC01E853FE4F449192
:10140000FC01EE57FE4F2491FC01E45CFE4F9491E9
:10141000992309F46AC0442309F454C050E0FA0146
:101420003197E231F10508F04DC08827EE58FF4FA3
:101430008F4F8CC5809180008F7707C0809180008E
:101440008F7D03C080918000877F809380003AC0A9
:1014500084B58F7702C084B58F7D84BD33C0809101
:10146000B0008F7703C08091B0008F7D8093B00073
:1014700029C0809190008F7707C0809190008F7D68
:1014800003C080919000877F809390001BC0809163
:10149000A0008F7707C08091A0008F7D03C080914E
:1014A000A000877F8093A0000DC0809120018F77DE
:1014B00007C0809120018F7D03C080912001877F2C
:1014C00080932001E92FF0E0EE0FFF1FE85FFE4F51
:1014D000A591B4918FB7F894EC91311103C0209588
:1014E0002E2301C02E2B2C938FBF08953FB7F89465
:1014F0008091490590914A05A0914B05B0914C050A
:1015000026B5A89B05C02F3F19F00196A11DB11D5E
:101510003FBFBA2FA92F982F8827820F911DA11D99
:10152000B11DBC01CD0142E0660F771F881F991FD6
:101530004A95D1F708951F920F920FB60F9211247A
:101540002F933F938F939F93AF93BF938091F0021C
:101550009091F102A091F202B091F302309148050E
:1015600023E0230F2D3720F40196A11DB11D05C0E6
:1015700026E8230F0296A11DB11D209348058093F4
:10158000F0029093F102A093F202B093F3028091E3
:10159000490590914A05A0914B05B0914C050196E3
:1015A000A11DB11D8093490590934A05A0934B0559
:1015B000B0934C05BF91AF919F918F913F912F9127
:1015C0000F900FBE0F901F901895CF93DF93CDB75C
:1015D000DEB7A8970FB6F894DEBF0FBECDBF7894E4
:1015E00084B5826084BD84B5816084BD85B5826028
:1015F00085BD85B5816085BD80916E0081608093D9
:101600006E00109281008091810082608093810041
:101610008091810081608093810080918000816051
:10162000809380008091B10084608093B1008091AC
:10163000B00081608093B0008091910082608093BF
:101640009100809191008160809391008091900041
:101650008160809390008091A10082608093A100BE
:101660008091A10081608093A1008091A0008160A1
:101670008093A0008091210182608093210180915C
:1016800021018160809321018091200181608093FC
:10169000200180917A00846080937A0080917A00A2
:1016A000826080937A0080917A00816080937A00D2
:1016B00080917A00806880937A001092C10086E65B
:1016C00092E0A4EFB2E0E6E4F2E08D939D931192F4
:1016D000049622E0863E9207C1F7259A269A8091C9
:1016E00001018064809301012E9A229A219A209A06
:1016F000299881E08DBD80E58CBD80E280938000DB
:1017000010926F0010927D032D9A2D988093800087
:1017100080E18093810081E090E090938900809344
:10172000880082E090E090938B0080938A0080E0B4
:1017300090E2909387008093860083E28093B000CC
:1017400088E08093B1001092B40083E08093B300EE
:101750008091B10081608093B100809181008160AF
:10176000809381000E94D00180918100887F8093C6
:10177000810080E29EE4909387008093860010921F
:101780008500109284008091B1001092B1001092F7
:10179000B2009DE49093B3008093B10080918100EA
:1017A0008260809381008DE0AAD88EE1A8D881E282
:1017B000A6D861E08EE11EDE60E081E21BDEE091F2
:1017C0008E03F0918F0382E08083E0918A03F09191
:1017D0008B031082E0918C03F0918D038FEC80835A
:1017E00010929603E0919203F091930386E0808338
:1017F000E0919003F0919103808180618083E0917A
:101800009003F0919103808188608083E091900340
:10181000F0919103808180688083E0919003F09142
:10182000910380818F7D808320E4F22E8EE793E008
:10183000D9D9181619060CF019C265DD7093EF029C
:101840006093EE0260DD7093ED026093EC025BDD6D
:101850007093EB026093EA0256DD7093E9026093A5
:10186000E80251DD4B015C017093E7026093E602F0
:101870008091EE029091EF02009709F025C1F3DB11
:101880008091EC029091ED028931910509F47DC0BF
:101890007CF583319105B1F1449709F0CFC16BE438
:1018A00074E0CE010196FBDB6BE674E0CE0141965D
:1018B000DDDB4AEE53E0BE016F5F7F4FCE01419604
:1018C00019DC6BE374E0CE010196E9DB6BE574E0B3
:1018D000CE014196E4DB6BE674E0CE018196C6DB77
:1018E0000AEE13E09E012F5F3F4F4AEE53E0A9C07E
:1018F0008B31910509F4D5C00CF4AAC04D9709F4B9
:1019000072C19CC16BE174E0CE010196C8DB6BE251
:1019100074E0CE014196C3DB6BE674E0CE018196A4
:10192000A5DB09EE13E09E012F5F3F4F49EE53E028
:10193000BE016F5E7F4FCE0181961CDC6BE374E0CD
:10194000CE010196ACDB6BE574E0CE014196A7DBDE
:101950006BE674E0CE01819689DB9E012F5F3F4FDD
:1019600049EE53E0BE016F5E7F4FCE01819602DCEF
:101970006BE474E0CE01019692DB6BE674E0CE017D
:10198000419674DB49EE53E098C093E0A92EB12C48
:101990006BE274E0CE01019682DB6BE174E0CE0174
:1019A00041967DDB6BE674E0CE0181965FDB0AEE4B
:1019B00013E09E012F5F3F4F4AEE53E0BE016F5E82
:1019C0007F4FCE018196D6DB80ED97E05DDC6BE248
:1019D00074E0CE01019663DB6BE174E0CE014196C9
:1019E0005EDB6BE674E0CE01819640DB09EE13E02E
:1019F0009E012F5F3F4F49EE53E0BE016F5E7F4F68
:101A0000CE018196B7DB80ED97E03EDC41E0A41A81
:101A1000B10809F0BDCF6BE374E0CE0101963FDB66
:101A20006BE574E0CE0141963ADB6BE674E0CE01E3
:101A300081961CDB08EE13E09E012F5F3F4F48EEBE
:101A400053E0BE016F5E7F4FCE01819693DBF6C0FF
:101A50006BE374E0CE01019622DB6BE574E0CE010E
:101A600041961DDB6BE674E0CE018196FFDA09EE4C
:101A700013E09E012F5F3F4F49EE53E0BE016F5EC2
:101A80007F4FCE01819676DB6BE474E0CE01019648
:101A900006DB6BE674E0CE014196E8DA43E750E0FE
:101AA0000CC06BE474E0CE010196F9DA6BE674E0E9
:101AB000CE014196DBDA47E850E0BE016F5F7F4F11
:101AC000CE01419617DBBAC08130910549F460918F
:101AD000EA027091EB028091EC029091ED0211C04C
:101AE00082309105A9F46091EA027091EB02809135
:101AF000EC029091ED0284DAB4018091E8029091B9
:101B0000E9027EDA0E94D00184E690E0BDDB8ECE51
:101B10008530910509F050C0A6DA0AE010E0809106
:101B20007B00877F80937B00F0927C0080917A001D
:101B3000806480937A0080917A0086FDFCCF80914A
:101B400078002091790090E0AC01522B61E070E0C8
:101B500080E090E0463651051CF060E070E0CB017B
:101B60004AE00E943A05C2DC2B013C0182E3882E48
:101B7000912CA12CB12CBADCDC01CB018419950984
:101B8000A609B709883E9340A105B10558F051E078
:101B9000851A9108A108B10888EE480E83E0581E06
:101BA000611C711C81149104A104B10421F701503E
:101BB000110909F0B4CF42C08A30910551F4609107
:101BC000EA027091EB028091EC029091ED0218DA3A
:101BD0002DCE8B30910519F40E94D00127CE83368B
:101BE000910571F540DA6BE174E0CE01019657DAA8
:101BF0006BE274E0CE01419652DABE016F5F7F4F17
:101C0000CE0141960E949E046BE374E0CE010196E2
:101C100046DA6BE574E0CE01419641DABE016F5FB2
:101C20007F4FCE0141960E949E046BE474E0CE018A
:101C3000019635DACE0101960E94F60411DAF6CD4E
:101C40008236910509F0F2CD0EDA8BE594E0E4DA04
:101C50008BE494E0E1DA8BE394E0DEDA88EE93E063
:101C600013DBFED961E081E2C5DBE0CD0E94FE0519
:101C7000DBCDEF92FF920F931F93CF93DF93EEE7AD
:101C8000F3E01382128288EE93E0A0E0B0E0848358
:101C90009583A683B7838AE092E09183808385EC65
:101CA00090E09587848784EC90E09787868780EC26
:101CB00090E0918B808B81EC90E0938B828B82EC17
:101CC00090E0958B848B86EC90E0978B868B118EC1
:101CD000128E138E148EE3EBF4E082E492E0918393
:101CE000808324E130E03383228324E630E03583AF
:101CF000248364EF71E077836683EBEAF4E09183F9
:101D000080834DE250E05383428348E750E055839F
:101D1000448340ED57E057834683E3EAF4E0918340
:101D200080830FE010E0138302834AEF50E0558375
:101D30004483C4ECD9E0D783C683EBE9F4E0918314
:101D40008083AAE0B0E0B383A2834EE551E05583DF
:101D5000448348EE53E057834683E3E9F4E09183FC
:101D60008083138302830CE211E01583048337839D
:101D70002683EBE8F4E0918380830F2EF6E0EF2ECC
:101D8000F12CF02DF382E2821583048337832683BE
:101D9000E3E8F4E091838083B383A28335832483D3
:101DA000D783C683EBE7F4E091838083B383A28378
:101DB0003583248317821682E3E7F4E091838083DE
:101DC000A5E0B0E0B383A283358324837783668361
:101DD000EBE6F4E09183808381E090E0938382835B
:101DE0003583248357834683EBE5F4E09383828332
:101DF00080E090E0A1E9B3E484839583A683B78370
:101E00008EE292E09183808300E010E02CEC32E4DB
:101E1000048715872687378740E050E06AEF73E430
:101E20004087518762877387EBE4F4E042E050E03B
:101E30005383428340E050E86BEB73E44483558363
:101E40006683778391838083048715872687378706
:101E50004087518762877387EBE3F4E043E050E00B
:101E60005383428340E050E062E873E44483558347
:101E7000668377839183808340E050E065EF73E46D
:101E8000448755876687778700871187228733873E
:101E9000EBE2F4E020E130E0338322834483558396
:101EA000668377839183808300E010E020EF32E443
:101EB000048715872687378740875187628773870E
:101EC000EBE1F4E021E130E03383228340E050E0B5
:101ED00062E073E4448355836683778391838083D0
:101EE00080E090E0AFEEB3E484879587A687B7875C
:101EF0004087518762877387DF91CF911F910F9140
:101F0000FF90EF9008950895A1E21A2EAA1BBB1B23
:101F1000FD010DC0AA1FBB1FEE1FFF1FA217B307B5
:101F2000E407F50720F0A21BB30BE40BF50B661FCB
:101F3000771F881F991F1A9469F76095709580958F
:101F400090959B01AC01BD01CF010895EE0FFF1FDD
:101F5000881F8BBF0790F691E02D19945058BB272E
:101F6000AA270ED0AAC29BD230F0A0D220F031F422
:101F70009F3F11F41EF490C20EF4E095E7FB86C279
:101F8000E92FACD280F3BA1762077307840795076D
:101F900018F071F49EF5C4C20EF4E0950B2EBA2F22
:101FA000A02D0B01B90190010C01CA01A00111245F
:101FB000FF27591B99F0593F50F4503E68F11A160B
:101FC000F040A22F232F342F4427585FF3CF46959C
:101FD00037952795A795F0405395C9F77EF41F16BE
:101FE000BA0B620B730B840BBAF09150A1F0FF0F88
:101FF000BB1F661F771F881FC2F70EC0BA0F621F74
:10200000731F841F48F4879577956795B795F79563
:102010009E3F08F0B3CF9395880F08F09927EE0FF5
:102020009795879508950CD048C240D240F037D29A
:1020300030F021F45F3F19F029C2511172C22CC255
:102040004DD298F39923C9F35523B1F3951B550B42
:10205000BB27AA2762177307840738F09F5F5F4F7B
:10206000220F331F441FAA1FA9F333D00E2E3AF0BC
:10207000E0E830D091505040E695001CCAF729D0D6
:10208000FE2F27D0660F771F881FBB1F2617370725
:102090004807AB07B0E809F0BB0B802DBF01FF2755
:1020A00093585F4F2AF09E3F510568F0EFC139C247
:1020B0005F3FECF3983EDCF3869577956795B7958F
:1020C000F7959F5FC9F7880F911D9695879597F9AA
:1020D0000895E1E0660F771F881FBB1F6217730723
:1020E0008407BA0720F0621B730B840BBA0BEE1F38
:1020F00088F7E095089504D06894B11112C208954C
:10210000F5D188F09F5790F0B92F9927B751A0F0DB
:10211000D1F0660F771F881F991F1AF0BA95C9F77B
:1021200012C0B13081F0FCD1B1E00895F9C1672F40
:10213000782F8827B85F39F0B93FCCF3869577952B
:102140006795B395D9F73EF4909580957095619514
:102150007F4F8F4F9F4F089575D108F48FEF0895EB
:10216000CF93DF938230910510F482E090E0E0910C
:102170004F05F091500520E030E0C0E0D0E030970E
:1021800011F14081518148175907C0F0481759078C
:1021900061F482819381209719F09B838A832BC0FD
:1021A0009093500580934F0526C02115310519F0F5
:1021B0004217530718F49A01BE01DF01EF010280B4
:1021C000F381E02DDCCF2115310509F1281B390BF6
:1021D0002430310590F412968D919C9113976115DE
:1021E000710521F0FB019383828304C09093500515
:1021F00080934F05FD01329644C0FD01E20FF31FAD
:1022000081939193225031092D933C933AC02091B0
:102210004D0530914E05232B41F42091020230915F
:10222000030230934E0520934D052091000230911A
:1022300001022115310541F42DB73EB7409104024A
:1022400050910502241B350BE0914D05F0914E0590
:10225000E217F307A0F42E1B3F0B2817390778F07D
:10226000AC014E5F5F4F2417350748F04E0F5F1FDC
:1022700050934E0540934D058193919302C0E0E049
:10228000F0E0CF01DF91CF9108950F931F93CF938B
:10229000DF93009709F48CC0FC01329713821282FD
:1022A00000914F05109150050115110581F4208111
:1022B0003181820F931F20914D0530914E052817D3
:1022C000390779F5F0934E05E0934D0571C0D801BB
:1022D00040E050E0AE17BF0750F412962D913C91AC
:1022E0001397AD012115310509F1D901F3CF9D01F6
:1022F000DA013383228360817181860F971F8217F1
:10230000930769F4EC0128813981260F371F2E5F6E
:102310003F4F318320838A819B8193838283452B26
:1023200029F4F0935005E0934F0542C01396FC93B7
:10233000EE931297ED01499159919E01240F351F9B
:10234000E217F30771F480819181840F951F029643
:1023500011969C938E938281938113969C938E9376
:102360001297E0E0F0E0D80112968D919C911397BE
:10237000009719F0F8018C01F6CF8D919C9198018E
:102380002E5F3F4F820F931F20914D0530914E05D8
:102390002817390769F4309729F4109250051092E4
:1023A0004F0502C01382128210934E0500934D0513
:1023B000DF91CF911F910F91089581E090E0F89403
:1023C000CFC040D008F481E00895E89409C097FB9D
:1023D0003EF490958095709561957F4F8F4F9F4FFC
:1023E0009923A9F0F92F96E9BB279395F695879540
:1023F00077956795B795F111F8CFFAF4BB0F11F403
:1024000060FF1BC06F5F7F4F8F4F9F4F16C08823A9
:1024100011F096E911C0772321F09EE8872F762FDF
:1024200005C0662371F096E8862F70E060E02AF020
:102430009A95660F771F881FDAF7880F969587950C
:1024400097F90895990F0008550FAA0BE0E8FEEFE1
:1024500016161706E807F907C0F012161306E40768
:10246000F50798F0621B730B840B950B39F40A2661
:1024700061F0232B242B252B21F408950A2609F43F
:10248000A140A6958FEF811D811D089597F99F6743
:1024900080E870E060E008959FEF80EC08950024EC
:1024A0000A941616170618060906089500240A94B9
:1024B00012161306140605060895092E0394000C3F
:1024C00011F4882352F0BB0F40F4BF2B11F460FFCE
:1024D00004C06F5F7F4F8F4F9F4F089557FD9058F7
:1024E000440F551F59F05F3F71F04795880F97FBD8
:1024F000991F61F09F3F79F0879508951216130692
:102500001406551FF2CF4695F1DF08C016161706C0
:102510001806991FF1CF86957105610508940895F5
:10252000E894BB2766277727CB0197F9089509D050
:10253000A59F900DB49F900DA49F800D911D112417
:102540000895A29FB001B39FC001A39F700D811D8C
:102550001124911DB29F700D811D1124911D0895AC
:1025600011E0C8E0D1E000E005C0802FFE01EEDC04
:102570002196011DC930D10780E00807B1F7F89412
:02258000FFCF8B
:102582000000510580000000000061073B01F205D8
:10259200D005E405A70700000000C9073C0788062C
:1025A2007F0676066D065E06360600000000CA0744
:1025B2003E070607FD06F406EB06BE06910600007E
:0625C2000000C8073A0703
:00000001FF
