:1000000023C1000052C1000050C100004EC10000D9
:100010004CC100004AC1000048C1000046C10000B8
:1000200044C1000042C1000040C100003EC10000C8
:100030003CC100003AC1000038C1000036C10000D8
:1000400034C1000032C1000030C100002EC10000E8
:100050000C9462082AC1000028C100000C948A0E8A
:1000600024C10000F6C70000CBC700001EC100007D
:100070001CC100001AC1000018C1000016C1000018
:1000800014C1000012C1000010C100000EC1000028
:100090000CC100000AC1000008C1000006C1000038
:1000A00004C1000002C1000000C10000FEC0000049
:1000B000FCC00000FAC00000F8C00000F6C000005C
:1000C000F4C00000F2C00000F0C00000EEC000006C
:1000D000ECC00000EAC00000E8C00000E6C000007C
:1000E000E4C000005010CF12CF12CF12CF12CF12A7
:1000F00091109410CF12CF12C3100A11CF12CF1249
:100100001911CF12CF122C11CF12CF12CF12B6115C
:10011000CF12CF12CF12CF12F011DF0DE20DD10DA1
:10012000D50DD90D190EE60DEA0DF00DF40DF80DF3
:10013000FE0D020E060E190E0C0E100E140E00000F
:100140000A0B02090C0D0E08070304010000000051
:10015000000000000000000000000000000000009F
:10016000000000000000000000001211100000005C
:10017000000000000000000000000000000000007F
:100180000000000000002200250028002B002E00A7
:100190003100340002010000050108010B010000DC
:1001A0002100240027002A002D0030003300010127
:1001B0000000040107010A010505050507050808F7
:1001C0000808020202020A0A0808040404040101E1
:1001D00001010101010103030303030303030407F6
:1001E00007070C0C0C0C0C0C0C0C0202020206068D
:1001F0000606060606060B0B0B0B0B0B0B0B010280
:100200001020200808102040102040800201020128
:1002100008040201010204081020408080402010E0
:100220000804020180040201804020100804020139
:1002300008040201010204081020408001020408A1
:10024000102040801E131D1311241FBECFEFD1E2DA
:10025000DEBFCDBF00E00CBF12E0A0E0B2E0E0E006
:10026000F2E300E00BBF02C007900D92A634B10785
:10027000D9F725E0A6E4B2E001C01D92A13FB20784
:10028000E1F711E0C3E2D1E000E006C021970109E7
:10029000802FFE010E94E515C232D10780E00807D9
:1002A000A9F70E94D40E0C94EF18AACEFC016A3E66
:1002B00083E07807C1F04CF4683E83E0780771F082
:1002C000693E83E07807A1F019C06B3E83E07807B0
:1002D00079F06C3E83E0780731F010C0648175815D
:1002E0008681978109C0648575858685978504C058
:1002F00060857185828593850E94BA16972F862F17
:10030000089561E08EE10C94B00D60E08EE10C94F4
:10031000B00DFC01DB0182E492E0918380831296B0
:100320008D919C9113979383828314968D919C91C8
:1003300015979583848316968D919C911797978333
:1003400086830895FC01DB0112968D919C91139791
:100350009383828314964D915D916D917C91179753
:1003600044835583668377838EE292E09183808312
:1003700018964D915D916D917C911B9740875187A7
:10038000628773871C968D919D910D90BC91A02DD5
:1003900084879587A687B78708952F923F924F92BB
:1003A0005F926F927F928F929F92AF92BF92CF9205
:1003B000DF92EF92FF920F931F93CF93DF93CDB70E
:1003C000DEB7CC54D1090FB6F894DEBF0FBECDBF57
:1003D0002B969FAF8EAF2B973B011A012901B501D8
:1003E000CE01C196AFDFB401CE01C1965FDF9C01A3
:1003F000F50182809380B701CE0181962C962FAFB4
:100400002C972D963FAF2D979DDFB601CE0181969B
:100410004DDF5C01F701C280D380B201CE0141966D
:1004200091DFB801CE01419641DF7C01F2010281EA
:100430001381B301CE01019685DFB101CE01019692
:1004400035DF1C01F301628073802B966EAD7FADAA
:100450002B97CE018F5B9F4F5CDF2D963FAD2D9785
:100460003F932C962FAD2C972F939101A30164E01D
:1004700070E0CE018F5B9F4F04D70F900F90C45B4D
:10048000DF4F0FB6F894DEBF0FBECDBFDF91CF9127
:100490001F910F91FF90EF90DF90CF90BF90AF90A2
:1004A0009F908F907F906F905F904F903F902F9094
:1004B00008954F925F926F927F928F929F92AF9228
:1004C000BF92CF92DF92EF92FF920F931F93CF9341
:1004D000DF93CDB7DEB768970FB6F894DEBF0FBED7
:1004E000CDBF7C018B013A01CE0101962BDFB30118
:1004F000CE010196DBDE2C01F80162807380B7012A
:10050000CE01419606DF1F921F92812C912CA12CC7
:10051000B12CC12CD12CE12CF12C00E010E0920187
:10052000A30161E070E0CE014196ABD60F900F9031
:1005300068960FB6F894DEBF0FBECDBFDF91CF91A6
:100540001F910F91FF90EF90DF90CF90BF90AF90F1
:100550009F908F907F906F905F904F9008954F92F3
:100560005F926F927F928F929F92AF92BF92CF9243
:10057000DF92EF92FF920F931F93CF93DF93CDB74C
:10058000DEB7A8970FB6F894DEBF0FBECDBF6C01E3
:100590003B012A015901B901CE014196D3DEB801D0
:1005A000CE01419683DE7C01F50102811381B30106
:1005B000CE010196C7DEB201CE01019677DE2C0195
:1005C000F30162807380B601CE018196A2DE1F9294
:1005D0001F92812C912CA12CB12CC12CD12C9201D9
:1005E000A30162E070E0CE0181964BD60F900F9090
:1005F000A8960FB6F894DEBF0FBECDBFDF91CF91A6
:100600001F910F91FF90EF90DF90CF90BF90AF9030
:100610009F908F907F906F905F904F9008958F92F2
:100620009F92AF92BF92CF92DF92EF92FF920F9381
:100630001F93CF93DF93CDB7DEB7C854D1090FB660
:10064000F894DEBF0FBECDBF68EF74E0CE01C19657
:1006500079DE68E075E0CE01819674DE68E175E0D0
:10066000CE0141966FDE68E275E0CE0101966ADE4A
:1006700068ED75E0CE018F5B9F4F4BDE81EE882EDB
:10068000912CCE01C1965C0128ECC22ED12C409752
:100690007C010FEE10E09E012F5E3F4F41E351E0E1
:1006A000BE016F5F7F4F809678DEC85BDF4F0FB66D
:1006B000F894DEBF0FBECDBFDF91CF911F910F9198
:1006C000FF90EF90DF90CF90BF90AF909F908F9072
:1006D00008958F929F92AF92BF92CF92DF92EF9246
:1006E000FF920F931F93CF93DF93CDB7DEB7C8541C
:1006F000D1090FB6F894DEBF0FBECDBF68EF74E02E
:10070000CE01C1961FDE68E075E0CE0181961ADE4B
:1007100068E175E0CE01419615DE68E275E0CE0134
:10072000019610DE68ED75E0CE018F5B9F4FF1DD25
:1007300085EF882E912CCE01C1965C0127EDC22E4B
:10074000D12C40977C0109E011E09E012F5E3F4FC4
:1007500046E151E0BE016F5F7F4F80961EDEC85BB1
:10076000DF4F0FB6F894DEBF0FBECDBFDF91CF9144
:100770001F910F91FF90EF90DF90CF90BF90AF90BF
:100780009F908F9008958F929F92AF92BF92CF9239
:10079000DF92EF92FF920F931F93CF93DF93CDB72A
:1007A000DEB7C854D1090FB6F894DEBF0FBECDBF77
:1007B00068EF74E0CE01C196C5DD68E075E0CE015A
:1007C0008196C0DD68E175E0CE014196BBDD68E24F
:1007D00075E0CE010196B6DD68ED75E0CE018F5B68
:1007E0009F4F97DD8AEF882E912CCE01C1965C0138
:1007F00024E0C22EDD24D39440977C0105E411E06F
:100800009E012F5E3F4F41EE50E0BE016F5F7F4F74
:100810008096C3DDC85BDF4F0FB6F894DEBF0FBE16
:10082000CDBFDF91CF911F910F91FF90EF90DF909F
:10083000CF90BF90AF909F908F9008958F929F928E
:10084000AF92BF92CF92DF92EF92FF920F931F93DE
:10085000CF93DF93CDB7DEB7C854D1090FB6F89464
:10086000DEBF0FBECDBF68EF74E0CE01C1966ADD7A
:1008700068E075E0CE01819665DD68E175E0CE0146
:10088000419660DD68E275E0CE0101965BDD68E8C7
:1008900075E0CE018F5B9F4F3CDD80E9882E992467
:1008A0009394CE01C1965C0128E1C22EDD24D3943D
:1008B00040977C0100E911E09E012F5E3F4F48EC1C
:1008C00050E0BE016F5F7F4F809667DDC85BDF4FF2
:1008D0000FB6F894DEBF0FBECDBFDF91CF911F9151
:1008E0000F91FF90EF90DF90CF90BF90AF909F90CF
:1008F0008F900895CF92DF92EF92FF92FC012281B8
:100900003381C480D580E680F780A901440F551F4C
:10091000FA01E058FC4F0190F081E02DC082D182B5
:10092000E282F382FA01E65CFC4F91838083F90155
:10093000EA5BFD4F41E04083209138033091390359
:10094000F901EE0FFF1FE850FD4F918380832F5F69
:100950003F4F3093390320933803FF90EF90DF909F
:10096000CF900895CF92DF92EF92FF920F931F9353
:10097000092E000CAA0BBB0B2FB7F89440917C03F7
:1009800050917D0360917E0370917F032FBF409350
:10099000F4025093F5026093F6027093F70200910F
:1009A000F0021091F1022091F2023091F3026A01FB
:1009B0007B01C01AD10AE20AF30A8C159D05AE0527
:1009C000BF05D0F64093F0025093F1026093F2021B
:1009D0007093F3021F910F91FF90EF90DF90CF90F3
:1009E00008958F929F92AF92BF92CF92DF92EF9233
:1009F000FF920F931F93CF93DF93CDB7DEB7C85409
:100A0000D1090FB6F894DEBF0FBECDBF68E675E022
:100A1000CE01019697DC68E875E0CE01419679DC5D
:100A20004AEE53E0BE016F5F7F4FCE01419641DD3C
:100A300068E575E0CE01419685DC68E775E0CE019A
:100A4000019680DC60E975E0CE01819662DC0AEEF9
:100A500013E09E012F5E3F4F4AEE53E0BE016F5FF1
:100A60007F4FCE0181967BDDE9DE80ED97E07ADF76
:100A70008ADE2FDED4DD68EF74E0CE01019662DC01
:100A800068E075E0CE0141965DDC68E175E0CE017D
:100A9000819658DC68E275E0CE01C19653DC68EDC2
:100AA00075E0CE018F5B9F4F34DC80E9882E99245E
:100AB0009394CE0101965C0125E2C22EDD24D394ED
:100AC00040967C010CEE10E09E012F5D3F4F46E307
:100AD00051E0BE016F5C7F4FC0965FDC68E475E05B
:100AE000C70130DC68E375E0C5012CDC68E875E01F
:100AF000CE0181960EDC0AEE13E097014AEE53E038
:100B0000B501CE0181962BDD8EEE92E02BDF68E4FD
:100B100075E0C70117DC68E375E0C50113DC68E820
:100B200075E0CE018196F5DB09EE13E0970149EE01
:100B300053E0B501CE01819612DD8EEE92E012DF18
:100B400068E475E0C701FEDB68E375E0C501FADB28
:100B500068E875E0CE018196DCDB0AEE13E09701D0
:100B60004AEE53E0B501CE018196F9DC8EEE92E0BB
:100B7000F9DE68E475E0C701E5DB68E375E0C5010F
:100B8000E1DB68E875E0CE018196C3DB09EE13E096
:100B9000970149EE53E0B501CE018196E0DC3FDDDF
:100BA00098DDF1DD4BDE68E575E0C701CBDB68E77A
:100BB00075E0C501C7DB68E875E0CE018196A9DB69
:100BC00008EC10E097014EE551E0B501CE018196A9
:100BD000C6DCC85BDF4F0FB6F894DEBF0FBECDBFDB
:100BE000DF91CF911F910F91FF90EF90DF90CF9009
:100BF000BF90AF909F908F900895CF92DF92EF9229
:100C0000FF920F931F93CF93DF936C017A018B01B7
:100C1000C0E0D0E0CE15DF0589F0D8016D918D01DF
:100C2000D601ED91FC910190F081E02DC60119955E
:100C3000892B11F47E0102C02196ECCFC701DF9110
:100C4000CF911F910F91FF90EF90DF90CF9008957B
:100C5000FC01918D828D981761F0828DDF01A80FC4
:100C6000B11D5D968C91928D9F5F9F73928F90E0E6
:100C700008958FEF9FEF0895FC01918D828D981755
:100C800031F0828DE80FF11D858D90E008958FEF92
:100C90009FEF0895FC01918D228D892F90E0805C5B
:100CA0009F4F821B91098F73992708958BE094E0E1
:100CB000F1DF21E0892B09F420E0822F0895FC0167
:100CC000848DDF01A80FB11DA35ABF4F2C91848DD5
:100CD00090E001968F739927848FA689B7892C930A
:100CE000A089B1898C9180648C93938D848D9813A5
:100CF00006C00288F389E02D80818F7D808308956E
:100D0000EF92FF920F931F93CF93DF93EC0181E05B
:100D1000888F9B8D8C8D981305C0E889F989808117
:100D200085FD23C0F62E0B8D10E00F5F1F4F0F7354
:100D30001127E02E8C8DE8120BC00FB607FCFACFFE
:100D4000E889F989808185FFF5CFCE01B8DFF2CF40
:100D50008B8DFE01E80FF11DE35AFF4FF0820B8FE0
:100D6000EA89FB898081806207C0EE89FF89608300
:100D7000E889F98980818064808381E090E0DF9157
:100D8000CF911F910F91FF90EF900895CF93DF9334
:100D9000EC01888D8823C1F0EA89FB89808185FD7B
:100DA00005C0A889B9898C9186FD0EC00FB607FCD5
:100DB000F5CF808185FFF2CFA889B9898C9185FF15
:100DC000EDCFCE017CDFE8CFDF91CF91089580E0B9
:100DD00090E0892B19F06ADF811125C080E090E056
:100DE000892B41F080E090E0892B21F00E940000E7
:100DF00081111CC080E090E0892B41F080E090E000
:100E0000892B21F00E940000811113C080E090E046
:100E1000892BA1F080E090E0892B81F00E940000F6
:100E200081110AC008950E940000D8CF0E940000DE
:100E3000E1CF0E940000EACF0C9400000895CF9209
:100E4000DF92EF92FF92FC01C480D580E680F780AC
:100E500020E030E047EE53E4C701B6010E942018BD
:100E600020E030E040E252E418162CF0C701B60151
:100E70000E94EE1504C0C701B6010E94ED150E9444
:100E8000BA16CB01FF90EF90DF90CF90089520E04D
:100E900030E040E251E4FC016481758186819781F4
:100EA0000E94EE150E94BA16CB010895FC016481E0
:100EB0007581868197810E94BA16CB010895FC0145
:100EC00064817581868197810E94BA16CB0108954D
:100ED000FC0164817581868197810E94BA16CB01DD
:100EE0000895FC0164817581868197810E94BA16FC
:100EF000CB010895CF92DF92EF92FF92FC01C48064
:100F0000D580E680F7802085318542855385C701ED
:100F1000B6010E94ED1520E030E0A9010E94EB1619
:100F200020E030E048EC51E487FD05C0C701B60180
:100F30000E94ED1504C0C701B6010E94EE150E9483
:100F4000BA16CB01FF90EF90DF90CF900895CF922B
:100F5000DF92EF92FF92FC01C480D580E680F7809B
:100F60002085318542855385C701B6010E94ED1564
:100F700020E030E0A9010E94EB1620E030E040E2E2
:100F800051E487FD05C0C701B6010E94ED1504C0FC
:100F9000C701B6010E94EE150E94BA16CB01FF9060
:100FA000EF90DF90CF900895FC0160857185828578
:100FB00093850E94BA16CB010895FC01648575855E
:100FC000868597850E94BA16CB010895FC0160853D
:100FD0007185828593850E94BA16CB010895FC0124
:100FE00064857585868597850E94BA16CB0108951C
:100FF0000E941C180C9484170C9484170C9484176A
:101000001F920F920FB60F9211240BB60F922F93CF
:101010003F934F935F936F937F938F939F93AF9380
:10102000BF93EF93FF938BE094E049DEFF91EF9144
:10103000BF91AF919F918F917F916F915F914F91F0
:101040003F912F910F900BBE0F900FBE0F901F90EE
:1010500018951F920F920FB60F9211240BB60F9294
:101060002F938F939F93EF93FF93E0911B04F09145
:101070001C048081E0912104F091220482FD12C0C1
:101080009081809124048F5F8F73209125048217B3
:1010900051F0E0912404F0E0E55FFB4F958F8093E1
:1010A000240401C08081FF91EF919F918F912F9136
:1010B0000F900BBE0F900FBE0F901F9018950895C4
:1010C000089508951F920F920FB60F9211240BB638
:1010D0000F922F933F934F935F936F937F938F93D1
:1010E0009F93AF93BF93EF93FF9380E28093800031
:1010F00010926F0010920904E0917A03F0917B0343
:10110000309711F078941995FF91EF91BF91AF91BD
:101110009F918F917F916F915F914F913F912F910F
:101120000F900BBE0F900FBE0F901F901895663654
:1011300071053CF0613092E079072CF060E072E0DC
:1011400002C066E670E020E030E1261B370B9FE22C
:10115000981B892F93E0899FF0011124F695E7955C
:10116000E054FC4F80FF05C08081807F832B80830B
:101170000CC0C90134E0969587953A95E1F78083D4
:101180002295207F81818F70282B218308952FB78E
:10119000F89480917C0390917D03A0917E03B0919F
:1011A0007F032FBF8093130490931404A09315041E
:1011B000B0931604E0910B04F0910C040084F185C7
:1011C000E02D8BE094E0199597FF26C02FB7F89497
:1011D00080917C0390917D03A0917E03B0917F0369
:1011E0002FBF409113045091140460911504709125
:1011F0001604841B950BA60BB70B40910F0450915E
:101200001004609111047091120484179507A607C9
:10121000B70780F28FEF9FEF089580910904811145
:101220002EC090E29093800090910A04992319F0C7
:1012300010920A0402C0299A2998E0ECF3E0908108
:101240009EBD0DB407FEFDCF91819EBD0DB407FE7E
:10125000FDCF3396DF0111979C919EBD0DB407FE23
:10126000FDCF94E0E830F90750F391E09093090442
:1012700020EA20938000B09A90936F00089581E057
:1012800008952F923F924F925F926F927F928F922A
:101290009F92AF92BF92CF92DF92EF92FF920F9305
:1012A0001F93CF93DF93CDB7DEB76E970FB6F89449
:1012B000DEBF0FBECDBFFC013B015E834D831887AF
:1012C0000F83DA86C9869C868B864DB75EB75E8BA8
:1012D0004D8B628173817E876D87848195819A8B26
:1012E000898BA681B781BC8BAB8BC3010197A3010E
:1012F000440F551F440F551FEDB7FEB7E41BF50B08
:101300000FB6F894FEBF0FBEEDBF6DB77EB76F5F2F
:101310007F4F788B6F87ADB7BEB7A41BB50B0FB6E9
:10132000F894BEBF0FBEADBFEDB7FEB731966F01EB
:10133000A301440F551F6DB77EB7641B750B0FB625
:10134000F8947EBF0FBE6DBF0DB71EB70F5F1F4F66
:10135000161417040CF0B3C0AD81BE81AA0FBB1FD9
:10136000A058BC4F0D90BC91A02D4D915D916D91F9
:101370007C91D6014D935D936D937C931397EDB75C
:10138000FEB732832183181619060CF098C0AF817E
:10139000B885AA0FBB1FA058BC4F0D90BC91A02DC3
:1013A0004D915D916D917C91D60114964D935D9315
:1013B0006D937C931797F801F382E282F3E06F1646
:1013C00071040CF47CC0A985BA85AA0FBB1FA05874
:1013D000BC4F0D90BC91A02D4D915D916D917C9174
:1013E000D60118964D935D936D937C931B97F801EE
:1013F000B582A482F4E06F1671040CF460C0D401CD
:10140000AA0FBB1FA058BC4F0D90BC91A02D4D91B1
:101410005D916D917C91D6011C964D935D936D937A
:101420007C931F978CA99DA9F80197838683F5E08B
:101430006F1671040CF443C0A0918003B091810336
:101440008D919D910D90BC91A02DF601808B918B7B
:10145000A28BB38BF80111861086F6E06F1671042B
:1014600074F1F601848B958BA68BB78BF8011386EC
:101470001286F7E06F16710414F1F601808F918FD8
:10148000A28FB38FF80115861486F8E06F167104E9
:10149000B4F0F601848F958FA68FB78FF801178669
:1014A0001686F9E06F16710454F0F60180A391A33B
:1014B000A2A3B3A3D80151961C921E9250971A83EF
:1014C0000983EF84F888DC82CB8200E010E0ED85B0
:1014D000FE854F01FF0FAA08BB080615170599F1F5
:1014E000A981BA816D917D91BA83A983EB81FC8139
:1014F0002191319141915191FC83EB83072E000C96
:10150000880B990B2B8F3C8F4D8F5E8F0E94261876
:101510002B8D3C8D4D8D5E8D0E94ED151B012C0198
:10152000C501B4010E9426189B01AC01C201B101A2
:101530000E945216D7016D937D938D939D937D01EB
:101540000F5F1F4FCACF812C912C8D819E81880FF8
:10155000991FFC01E058FC4FFA83E9838F8198853D
:10156000880F991F9C0120583C4F3C832B83898511
:101570009A85880F991FAC0140585C4F588F4F8B4C
:101580008B859C85880F991FBC0160587C4F7A8F92
:10159000698F2D853E858216930609F406C1760172
:1015A000AF84B88800E010E006151705B1F0D5014A
:1015B0002D913D914D915D915D01F70160817181AA
:1015C000828193810E94EE15D7016D937D938D9357
:1015D0009D937D010F5F1F4FE7CF161417040CF08A
:1015E000DCC0F60160817181828193810E94BA160C
:1015F0008D819E819CDDA981BA812D913C91F6015E
:1016000080819181A281B381F90180839183A2833A
:10161000B383F1E06F16710409F4BFC0D6011496CC
:101620002D903D904D905C901797C201B1010E94A2
:10163000BA168F8198857BDDAB81BC81ED91FC91E1
:101640002082318242825382B2E06B16710409F427
:10165000A4C0F6012084318442845384C201B101C4
:101660000E94BA1689859A8562DDAF89B88DED91A1
:10167000FC912082318242825382B3E06B16710466
:1016800009F48BC0F6012484358446845784C20152
:10169000B1010E94BA168B859C8549DDA98DBA8D52
:1016A000ED91FC912082318242825382B4E06B162C
:1016B000710409F472C0F601208831884288538889
:1016C000C201B1010E94BA1680E090E030DD0091C5
:1016D000800310918103D8012D923D924D925C922E
:1016E0001397B5E06B16710409F457C0F60124880E
:1016F000358846885788C201B1010E94BA1680E039
:1017000090E015DDD8012D923D924D925C92139799
:10171000B6E06B16710409F440C0F601208C318CE0
:10172000428C538CC201B1010E94BA1680E090E055
:10173000FEDCD8012D923D924D925C921397B7E05A
:101740006B16710451F1F601248C358C468C578C44
:10175000C201B1010E94BA1680E090E0E8DCD80135
:101760002D923D924D925C921397B8E06B167104E6
:10177000A1F0F60164A175A186A197A10E94BA16F5
:1017800080E090E0D4DCF60180A191A1A2A1B3A1F8
:10179000F80180839183A283B3833FDD89899A898D
:1017A000E1D8FFEF8F1A9F0AF4CE8B899C89DAD893
:1017B0004D895E890FB6F8945EBF0FBE4DBF6E9621
:1017C0000FB6F894DEBF0FBECDBFDF91CF911F9152
:1017D0000F91FF90EF90DF90CF90BF90AF909F90D0
:1017E0008F907F906F905F904F903F902F900895D3
:1017F00090E0FC01E250FE4F2491FC01E854FE4FC2
:101800008491882399F090E0880F991FFC01E2569B
:10181000FE4FA591B491FC01EC57FE4F8591949138
:101820008FB7F894EC91E22BEC938FBF08952F9231
:101830003F924F925F926F927F928F929F92AF9260
:10184000BF92CF92DF92EF92FF920F931F93CF93AD
:10185000DF93CDB7DEB7AE970FB6F894DEBF0FBEFD
:10186000CDBF8C011B01CE0101960E94A2016D81AA
:101870007E818F8198850E94BA162B013C01F1016F
:1018800022803380B801CE0141960E94A2016D8969
:101890007E898F89988D0E94BA169B01AC01F80150
:1018A0000280F381E02DFAA7E9A760ED75E0CE0193
:1018B00081962BA73CA74DA75EA70E9489011F9286
:1018C0001F92812C912CA12CB12CC12CD12C7201F6
:1018D00081012BA53CA549A55AA562E070E0CE0187
:1018E0008196CFDC0F900F90AE960FB6F894DEBFC6
:1018F0000FBECDBFDF91CF911F910F91FF90EF9061
:10190000DF90CF90BF90AF909F908F907F906F901F
:101910005F904F903F902F9008956F927F928F929B
:101920009F92AF92BF92CF92DF92EF92FF920F936E
:101930001F93CF93DF93CDB7DEB76C970FB6F894B4
:10194000DEBF0FBECDBF8C01BC01CE0101960E944F
:10195000A2016D817E818F8198850E94BA169B01BC
:10196000AC01F8016280738060ED75E0CE014196B4
:10197000298F3A8F4B8F5C8F0E9489011F921F9293
:10198000812C912CA12CB12CC12CD12CE12CF12C2F
:1019900000E010E0298D3A8DA30161E070E0CE01F6
:1019A00041966FDC0F900F906C960FB6F894DEBFE7
:1019B0000FBECDBFDF91CF911F910F91FF90EF90A0
:1019C000DF90CF90BF90AF909F908F907F906F905F
:1019D00008958F929F92AF92BF920F931F93CF93D0
:1019E000DF93CDB7DEB7A1970FB6F894DEBF0FBE79
:1019F000CDBF19A2423008F44AE08E010F5D1F4F9F
:101A0000842E912CA12CB12CA50194010E94C31508
:101A1000E62FB901CA0101501109EA3014F4E05D62
:101A200001C0E95CD801EC93232B242B252B61F713
:101A30000115110569F0F80101900020E9F73197CF
:101A4000AF01401B510BB8018BE094E0D6D802C027
:101A500080E090E0A1960FB6F894DEBF0FBECDBF38
:101A6000DF91CF911F910F91BF90AF909F908F907A
:101A70000895FF920F931F93CF93DF9300D01F928F
:101A8000CDB7DEB784DBFC0197FD11C08D32910527
:101A900091F0C0970A9778F0E0910B04F0910C0454
:101AA0000680F781E02D8BE094E01995EBCF60E0A4
:101AB00070E0CB014BC020E030E0A901F12CE13017
:101AC000F105F1F0ED32F105C9F0CF01C0970A97A9
:101AD000B8F4AAE0B0E00E94D6188F01FF0F220BE5
:101AE000330BDC01CB01800F911FA21FB31F9C01A0
:101AF000AD01205331094109510902C0FF24F3947B
:101B0000E0910B04F0910C040680F781E02D8BE04E
:101B100094E029833A834B835C83199538DBFC017D
:101B2000C09729813A814B815C810A9740F2E1306C
:101B3000F10529F2FF2041F066277727CB01621BD0
:101B4000730B840B950B02C0CA01B9010F900F9063
:101B50000F900F90DF91CF911F910F91FF900895FB
:101B6000362F90E0FC01E25CFE4F4491FC01E25014
:101B7000FE4F2491FC01E854FE4F9491992309F4FF
:101B80006BC0442309F455C050E0FA013197E231AB
:101B9000F10508F04EC08827E357FF4F8F4F0C9494
:101BA000E515809180008F7707C0809180008F7D40
:101BB00003C080918000877F809380003AC084B505
:101BC0008F7702C084B58F7D84BD33C08091B00013
:101BD0008F7703C08091B0008F7D8093B00029C0C3
:101BE000809190008F7707C0809190008F7D03C017
:101BF00080919000877F809390001BC08091A0000F
:101C00008F7707C08091A0008F7D03C08091A000D6
:101C1000877F8093A0000DC0809120018F7707C03F
:101C2000809120018F7D03C080912001877F809368
:101C30002001E92FF0E0EE0FFF1FEC57FE4FA591BA
:101C4000B4918FB7F894EC91311103C020952E23F5
:101C500001C02E2B2C938FBF08958F929F92AF922D
:101C6000BF92CF92DF92EF92FF926B017C012DD059
:101C70004B015C01C114D104E104F104E9F025D069
:101C8000DC01CB0188199909AA09BB09883E934058
:101C9000A105B10578F321E0C21AD108E108F108E5
:101CA00088EE880E83E0981EA11CB11CC114D104DB
:101CB000E104F10421F7DECFFF90EF90DF90CF90A9
:101CC000BF90AF909F908F9008953FB7F894809108
:101CD000E9059091EA05A091EB05B091EC0526B5D8
:101CE000A89B05C02F3F19F00196A11DB11D3FBF54
:101CF000BA2FA92F982F8827820F911DA11DB11DE2
:101D0000BC01CD0142E0660F771F881F991F4A95DD
:101D1000D1F708951F920F920FB60F9211242F93AF
:101D20003F938F939F93AF93BF9380917C03909148
:101D30007D03A0917E03B0917F033091E80523E0FD
:101D4000230F2D3720F40196A11DB11D05C026E8F3
:101D5000230F0296A11DB11D2093E80580937C03FB
:101D600090937D03A0937E03B0937F038091E90558
:101D70009091EA05A091EB05B091EC050196A11DAB
:101D8000B11D8093E9059093EA05A093EB05B0930C
:101D9000EC05BF91AF919F918F913F912F910F9043
:101DA0000FBE0F901F901895CF93DF93CDB7DEB77E
:101DB000A8970FB6F894DEBF0FBECDBF789484B558
:101DC000826084BD84B5816084BD85B5826085BD37
:101DD00085B5816085BD80916E00816080936E00C5
:101DE00010928100809181008260809381008091B7
:101DF0008100816080938100809180008160809368
:101E000080008091B10084608093B1008091B00027
:101E100081608093B00080919100826080939100F6
:101E20008091910081608093910080919000816009
:101E3000809390008091A10082608093A1008091A6
:101E4000A10081608093A1008091A00081608093B7
:101E5000A000809121018260809321018091210165
:101E60008160809321018091200181608093200115
:101E700080917A00846080937A0080917A008260F9
:101E800080937A0080917A00816080937A008091BB
:101E90007A00806880937A001092C10086E692E012
:101EA000A0E8B3E006E412E0A801BD019C01FB013B
:101EB00021933193BF01FA011192AF012C5F3F4F83
:101EC000F2E0263E3F0799F78D939D93F80111921A
:101ED0008F010496F2E0863E9F07B1F7259A269A75
:101EE000809101018064809301012E9A229A219AA7
:101EF000209A299881E08DBD80E58CBD80E2809399
:101F0000800010926F00109209042D9A2D988093F2
:101F1000800080E18093810081E090E090938900CF
:101F20008093880082E090E090938B0080938A00F9
:101F300080E090E2909387008093860083E2809314
:101F4000B00088E08093B1001092B40083E08093E9
:101F5000B3008091B10081608093B10080918100D5
:101F600081608093810059D980918100887F80931E
:101F7000810080E29EE49093870080938600109217
:101F80008500109284008091B1001092B1001092EF
:101F9000B2009DE49093B3008093B10080918100E2
:101FA0008260809381008DE023DC8EE121DC81E280
:101FB0001FDC61E08EE1D4DD60E081E2D1DDE09103
:101FC0001B04F0911C0482E08083E0911704F091DF
:101FD00018041082E0911904F0911A048FEC8083A8
:101FE00010922304E0911F04F091200486E0808386
:101FF000E0911D04F0911E04808180618083E09156
:102000001D04F0911E04808188608083E0911D048E
:10201000F0911E04808180688083E0911D04F0911E
:102020001E0480818F7D808390E4F92E8BE094E004
:102030000E944A06181619060CF0FCC21ADD7093AD
:10204000EF026093EE0215DD7093ED026093EC02F7
:1020500010DD7093EB026093EA020BDD7093E902EE
:102060006093E80206DD4B015C017093E702609328
:10207000E6028091EE029091EF02009709F0D1C143
:102080000E948501E091EC02F091ED027397EB3133
:10209000F10508F084C28827EE58FF4F8F4F95C591
:1020A00068E375E0CE0101960E94A20168E475E044
:1020B000CE0141960E94A20168E875E0CE018196AA
:1020C0000E94890109EE13E09E012F5F3F4F49EE08
:1020D00053E0BE016F5E7F4FCE0181960E94AF023A
:1020E00068E575E0CE0101960E94A20168E775E0FF
:1020F000CE0141960E94A20168E875E0CE0181966A
:102100000E9489019E012F5F3F4F49EE53E0BE01BF
:102110006F5E7F4FCE0181960E94AF0268E675E048
:1021200011C10E94F1043BC268E575E0CE01019641
:102130000E94A20168E775E0CE0141960E94A201CB
:1021400068E875E0CE0181960E94890109EE13E0EE
:102150009E012F5F3F4F49EE53E0BE016F5E7F4F00
:10216000CE0181960E94AF0268E675E0CE0101962D
:102170000E94A20168E875E0CE0141960E948901A3
:102180004DE750E0EBC068E375E0CE0101960E9498
:10219000A20168E475E0CE0141960E94A201BE0151
:1021A0006F5F7F4FCE01419642DB68E575E0CE015F
:1021B00001960E94A20168E775E0CE0141960E9457
:1021C000A201BE016F5F7F4FCE01419630DB68E612
:1021D00075E0CE0101960E94A201CE0101969DDB21
:1021E00068EC74E0CE0101960E94A20168ED74E0F3
:1021F000CE0141960E94A20168E875E0CE01819669
:102200000E94890109EE13E09E012F5F3F4F49EEC6
:1022100053E0FFC068EE74E0CE0101960E94A20177
:1022200068E875E0CE0141960E9489014AEE53E0CC
:1022300095C068EC74E0CE0101960E94A20168EDA1
:1022400074E0CE0141960E94A201BE016F5F7F4FF4
:10225000CE014196ECDAA3C183E0C82ED12C68EC04
:1022600074E0CE0101960E94A20168ED74E0CE01F7
:1022700041960E94A20168E875E0CE0181960E9415
:1022800089010AEE13E09E012F5F3F4F4AEE53E0B3
:10229000BE016F5E7F4FCE0181960E94AF0288EE35
:1022A00093E00E94B20468EC74E0CE0101960E94B3
:1022B000A20168ED74E0CE0141960E94A20168E897
:1022C00075E0CE0181960E94890108EE13E09E011F
:1022D0002F5F3F4F48EE53E0BE016F5E7F4FCE0150
:1022E00081960E94AF0288EE93E00E94B20421E042
:1022F000C21AD10809F0B3CF68EC74E0CE010196A0
:102300000E94A20168ED74E0CE0141960E94A201F4
:1023100068E875E0CE0181960E94890109EE13E01C
:102320009E012F5F3F4F49EE53E0BE016F5E7F4F2E
:10233000CE0181960E94AF0280ED97E00E94B20428
:1023400068EE74E0CE0101960E94A20168E875E093
:10235000CE0141960E94890149EE53E0BE016F5FB4
:102360007F4FCE0141960E94590219C168EB74E07B
:10237000CE0101960E94A20168EA74E0CE01419666
:102380000E94A20168E875E0CE0181960E94890151
:1023900009EE13E09E012F5F3F4F49EE53E0BE016F
:1023A0006F5E7F4FCE0181960E94AF0268EC74E0B1
:1023B000CE0101960E94A20168ED74E0CE01419623
:1023C0000E94A20168E875E0CE0181960E94890111
:1023D00008EE13E09E012F5F3F4F48EE53E019C017
:1023E00068EA74E0CE0101960E94A20168EB74E0F5
:1023F000CE0141960E94A20168E875E0CE01819667
:102400000E9489010AEE13E09E012F5F3F4F4AEEC2
:1024100053E0BE016F5E7F4FCE0181960E94AF02F6
:10242000BEC08130910549F46091EA027091EB02DF
:102430008091EC029091ED0212C082309105C1F4BE
:102440006091EA027091EB028091EC029091ED02B2
:102450000E949708B4018091E8029091E9020E94DD
:1024600097080E940D0984E690E00E94B204DECD38
:102470008530910581F50E9485010AE010E0809188
:102480007B00877F80937B00F0927C0080917A00B4
:10249000806480937A0080917A0086FDFCCF8091E1
:1024A00078002091790090E0AC01522B61E070E05F
:1024B00080E090E0463651051CF060E070E0CB0112
:1024C0004AE087DA62E370E080E090E0C6DB01502A
:1024D0001109A9F664C08A30910559F46091EA02A5
:1024E0007091EB028091EC029091ED020E949708AE
:1024F0009DCD8B30910519F40E940D0997CD87333E
:102500009105D9F468EE73E080E090E0A6DB0AE084
:1025100010E0E0910B04F0910C040190F081E02DAB
:1025200060E38BE094E0199562E370E080E090E076
:1025300094DB0150110969F779CD8336910591F546
:102540000E94850168E375E0CE0101960E94A20118
:1025500068E475E0CE0141960E94A201BE016F5F62
:102560007F4FCE01419663D968E575E0CE010196B3
:102570000E94A20168E775E0CE0141960E94A20187
:10258000BE016F5F7F4FCE01419651D968E675E07D
:10259000CE0101960E94A201CE010196BED90E94F1
:1025A000810144CD8236910509F040CD0E9485011C
:1025B00088E795E00E947A0488E695E00E947A0414
:1025C00088E595E00E947A0488E495E00E947A0408
:1025D00088E395E00E947A0488E295E00E947A04FC
:1025E00088E195E00E947A0488E095E00E947A04F0
:1025F00088EF94E00E947A0488EE94E00E947A04C6
:1026000088ED94E00E947A0488EC94E00E947A04B9
:1026100088EA94E00E947A0488EB94E00E947A04AD
:1026200088EE93E00E94B2040E94810161E081E2A1
:1026300097DAFCCC0E94E706F7CC08958F929F9220
:10264000AF92BF92CF92DF92EF92FF920F931F93C0
:10265000CF93DF93EBE0F4E01382128288EE93E0F5
:10266000A0E0B0E084839583A683B7838AE092E0FC
:102670009183808385EC90E09587848784EC90E05B
:102680009787868780EC90E0918B808B81EC90E03F
:10269000938B828B82EC90E0958B848B86EC90E020
:1026A000978B868B118E128E138E148EE0EEF5E0D2
:1026B00082E492E0918380832FE0C22ED12CD382DA
:1026C000C2822AEF30E03583248334ECE32E39E0F4
:1026D000F32EF782E682E8EDF5E09183808362E0F5
:1026E00070E0738362832EEE32E035832483C0ED85
:1026F000D7E0D783C683E0EDF5E09183808324E1C2
:1027000030E03383228324E630E03583248304EFF2
:1027100011E017830683E8ECF5E0918380834DE2B6
:1027200050E05383428348E750E055834483D78386
:10273000C683E0ECF5E0918380834AE050E0538368
:102740004283AEE5B1E0B583A483A8EEB3E0B783DE
:10275000A683E8EBF5E091838083D382C2820F2EBB
:10276000FCE2CF2EDD24D394F02DD582C4823783B2
:102770002683E0EBF5E0918380830F2EF6E0AF2E09
:10278000B12CF02DB382A282D582C48237832683F6
:10279000E8EAF5E091838083538342833583248381
:1027A000F782E682E0EAF5E09183808353834283F7
:1027B0003583248317821682E8E9EE2EE5E0FE2EAB
:1027C000F701918380830F2EF5E08F2E912CF02D51
:1027D00093828282358324831783068300E915E080
:1027E000F8019183808373836283D583C483B78325
:1027F000A683C8E8D5E09983888381E090E09B8335
:102800008A833D832C83BF83AE83A8E7B5E013960C
:102810009C938E93129700E010E020EA33E4149624
:102820000D931D932D933C9317978EE292E0119692
:102830009C938E9300E010E02CEC32E41C960D93F8
:102840001D932D933C931F97C12CD12CEAEFEE2EB4
:10285000E3E4FE2E1896CD92DD92ED92FC921B974A
:10286000A8E6B5E013967C936E931297C12CF0E81E
:10287000DF2EFBEBEF2EF3E4FF2E1496CD92DD92CC
:10288000ED92FC92179711969C938E931C960D9344
:102890001D932D933C931F971896CD92DD92ED9248
:1028A000FC921B97A8E5B5E063E070E013967C937B
:1028B0006E931297C12CD12CC6E6EC2EC3E4FC2EED
:1028C0001496CD92DD92ED92FC92179711969C93FF
:1028D0008E93C12CD12CEE24EA94D3E4FD2E1C96C9
:1028E000CD92DD92ED92FC921F9718960D931D9359
:1028F0002D933C931B97A8E4B5E020E130E01396BC
:102900003C932E93129700E010E025EF33E41496E9
:102910000D931D932D933C93179711969C938E9333
:10292000C12CD12C60EFE62E62E4F62E1C96CD92DF
:10293000DD92ED92FC921F9718960D931D932D93A7
:102940003C931B97A8E3B5E021E130E013963C935C
:102950002E93129700E010E022E033E414960D93DA
:102960001D932D933C93179711969C938E93C12C96
:10297000D12C7FEEE72E73E4F72E1C96CD92DD92DC
:10298000ED92FC921F9718960D931D932D933C93F7
:102990001B97A8E2B5E013969C928E921297C12CD9
:1029A000D12CE8E4EE2EE3E4FE2E1496CD92DD92D7
:1029B000ED92FC92179711969C938E931C96CD9254
:1029C000DD92ED92FC921F971896CD92DD92ED92DA
:1029D000FC921B97E8E1F5E0B382A28200E010E0F0
:1029E00028EC33E404831583268337839183808323
:1029F00004871587268737870087118722873387C3
:102A0000E8E0F5E067E070E073836283812C912C4D
:102A1000ACE8AA2EA3E4BA2E84829582A682B7825D
:102A20009183808384869586A686B78680869186E4
:102A3000A286B386E8EFF4E068E070E07383628317
:102A400004831583268337839183808304871587C6
:102A5000268737870087118722873387E8EEF4E0DF
:102A600029E030E033832283812C912CB5EAAB2E10
:102A7000B3E4BB2E84829582A682B7829183808341
:102A800000E010E028ED32E40487158726873787B9
:102A900080869186A286B386E8EDF4E05383428374
:102AA00040E050E06AE773E44483558366837783AC
:102AB0009183808340E050E06CE073E44487558765
:102AC0006687778740E050E061EE73E44087518786
:102AD00062877387E8ECF4E04BE050E05383428375
:102AE00040E050E06AEA73E4448355836683778369
:102AF0009183808340E050E060EF73E44487558722
:102B000066877787C086D186E286F386E8EBF4E0B5
:102B10004DE050E05383428340E050E066EE73E4C2
:102B200044835583668377839183808304871587E5
:102B3000268737874087518762877387E8EAF4E002
:102B40004CE050E05383428304831583268337830C
:102B50009183808380E090E8ACEFB3E4848795872D
:102B6000A687B7870087118722873387DF91CF91A8
:102B70001F910F91FF90EF90DF90CF90BF90AF909B
:102B80009F908F900895A1E21A2EAA1BBB1BFD01F6
:102B90000DC0AA1FBB1FEE1FFF1FA217B307E4073C
:102BA000F50720F0A21BB30BE40BF50B661F771F94
:102BB000881F991F1A9469F7609570958095909574
:102BC0009B01AC01BD01CF010895EE0FFF1F881FCF
:102BD0008BBF0790F691E02D19945058BB27AA2778
:102BE0000ED0AAC29BD230F0A0D220F031F49F3F89
:102BF00011F41EF490C20EF4E095E7FB86C2E92FB3
:102C0000ACD280F3BA17620773078407950718F0F0
:102C100071F49EF5C4C20EF4E0950B2EBA2FA02DD0
:102C20000B01B90190010C01CA01A0011124FF2779
:102C3000591B99F0593F50F4503E68F11A16F04074
:102C4000A22F232F342F4427585FF3CF4695379573
:102C50002795A795F0405395C9F77EF41F16BA0B38
:102C6000620B730B840BBAF09150A1F0FF0FBB1FE6
:102C7000661F771F881FC2F70EC0BA0F621F731F2F
:102C8000841F48F4879577956795B795F7959E3F8C
:102C900008F0B3CF9395880F08F09927EE0F97951A
:102CA000879508950CD048C240D240F037D230F01A
:102CB00021F45F3F19F029C2511172C22CC24DD2CA
:102CC00098F39923C9F35523B1F3951B550BBB27F3
:102CD000AA2762177307840738F09F5F5F4F220FA0
:102CE000331F441FAA1FA9F333D00E2E3AF0E0E899
:102CF00030D091505040E695001CCAF729D0FE2FE5
:102D000027D0660F771F881FBB1F26173707480776
:102D1000AB07B0E809F0BB0B802DBF01FF2793582C
:102D20005F4F2AF09E3F510568F0EFC139C25F3F07
:102D3000ECF3983EDCF3869577956795B795F79514
:102D40009F5FC9F7880F911D9695879597F908950C
:102D5000E1E0660F771F881FBB1F621773078407A8
:102D6000BA0720F0621B730B840BBA0BEE1F88F7B7
:102D7000E095089504D06894B11112C20895F5D178
:102D800088F09F5790F0B92F9927B751A0F0D1F054
:102D9000660F771F881F991F1AF0BA95C9F712C0DE
:102DA000B13081F0FCD1B1E00895F9C1672F782FDF
:102DB0008827B85F39F0B93FCCF38695779567954A
:102DC000B395D9F73EF490958095709561957F4FB6
:102DD0008F4F9F4F089575D108F48FEF0895CF93CB
:102DE000DF938230910510F482E090E0E091EF05EE
:102DF000F091F00520E030E0C0E0D0E0309711F134
:102E00004081518148175907C0F04817590761F4AC
:102E100082819381209719F09B838A832BC09093A2
:102E2000F0058093EF0526C02115310519F04217F2
:102E3000530718F49A01BE01DF01EF010280F3810C
:102E4000E02DDCCF2115310509F1281B390B243089
:102E5000310590F412968D919C911397611571052F
:102E600021F0FB019383828304C09093F00580934B
:102E7000EF05FD01329644C0FD01E20FF31F81937F
:102E80009193225031092D933C933AC02091ED0546
:102E90003091EE05232B41F4209102023091030280
:102EA0003093EE052093ED05209100023091010250
:102EB0002115310541F42DB73EB7409104025091E0
:102EC0000502241B350BE091ED05F091EE05E217AC
:102ED000F307A0F42E1B3F0B2817390778F0AC013D
:102EE0004E5F5F4F2417350748F04E0F5F1F50931A
:102EF000EE054093ED058193919302C0E0E0F0E090
:102F0000CF01DF91CF9108950F931F93CF93DF935C
:102F1000009709F48CC0FC01329713821282009151
:102F2000EF051091F0050115110581F42081318123
:102F3000820F931F2091ED053091EE052817390778
:102F400079F5F093EE05E093ED0571C0D80140E00E
:102F500050E0AE17BF0750F412962D913C91139795
:102F6000AD012115310509F1D901F3CF9D01DA0138
:102F70003383228360817181860F971F82179307A5
:102F800069F4EC0128813981260F371F2E5F3F4FEE
:102F9000318320838A819B8193838283452B29F40B
:102FA000F093F005E093EF0542C01396FC93EE9387
:102FB0001297ED01499159919E01240F351FE21797
:102FC000F30771F480819181840F951F0296119609
:102FD0009C938E938281938113969C938E931297E8
:102FE000E0E0F0E0D80112968D919C911397009744
:102FF00019F0F8018C01F6CF8D919C9198012E5F0C
:103000003F4F820F931F2091ED053091EE05281759
:10301000390769F4309729F41092F0051092EF0502
:1030200002C0138212821093EE050093ED05DF912A
:10303000CF911F910F91089581E090E0F894CFC057
:1030400040D008F481E00895E89409C097FB3EF46D
:1030500090958095709561957F4F8F4F9F4F9923E5
:10306000A9F0F92F96E9BB279395F6958795779563
:103070006795B795F111F8CFFAF4BB0F11F460FF23
:103080001BC06F5F7F4F8F4F9F4F16C0882311F07B
:1030900096E911C0772321F09EE8872F762F05C08F
:1030A000662371F096E8862F70E060E02AF09A952A
:1030B000660F771F881FDAF7880F9695879597F91F
:1030C0000895990F0008550FAA0BE0E8FEEF1616B9
:1030D0001706E807F907C0F012161306E407F5070C
:1030E00098F0621B730B840B950B39F40A2661F080
:1030F000232B242B252B21F408950A2609F4A14023
:10310000A6958FEF811D811D089597F99F6780E82F
:1031100070E060E008959FEF80EC089500240A9429
:103120001616170618060906089500240A941216A2
:103130001306140605060895092E0394000C11F4D5
:10314000882352F0BB0F40F4BF2B11F460FF04C082
:103150006F5F7F4F8F4F9F4F089557FD9058440FDB
:10316000551F59F05F3F71F04795880F97FB991FE6
:1031700061F09F3F79F087950895121613061406A3
:10318000551FF2CF4695F1DF08C016161706180630
:10319000991FF1CF86957105610508940895E8940B
:1031A000BB2766277727CB0197F9089509D0A59FFC
:1031B000900DB49F900DA49F800D911D1124089532
:1031C000A29FB001B39FC001A39F700D811D112468
:1031D000911DB29F700D811D1124911D089511E064
:1031E000C3E2D1E000E005C0802FFE01EEDC2196B5
:1031F000011DC432D10780E00807B1F7F894FFCF72
:103200000000F1058000000000008006FD054A0670
:1032100028063C06C606000000006008FE0771078D
:1032200068075F07560747071F070000000061088F
:10323000FA07EF07E607DD07D407A7077A070000BC
:0632400000005F08FC071E
:00000001FF
